{
	"contracts/arrayExample.sol": {
		"arrayExample": {
			"abi": [
				{
					"inputs": [
						{
							"internalType": "address",
							"name": "",
							"type": "address"
						}
					],
					"name": "balances",
					"outputs": [
						{
							"internalType": "uint256",
							"name": "",
							"type": "uint256"
						}
					],
					"stateMutability": "view",
					"type": "function"
				},
				{
					"inputs": [
						{
							"internalType": "uint256",
							"name": "age",
							"type": "uint256"
						}
					],
					"name": "checkAge",
					"outputs": [
						{
							"internalType": "string",
							"name": "",
							"type": "string"
						}
					],
					"stateMutability": "pure",
					"type": "function"
				},
				{
					"inputs": [
						{
							"internalType": "address",
							"name": "user",
							"type": "address"
						}
					],
					"name": "getBalance",
					"outputs": [
						{
							"internalType": "uint256",
							"name": "",
							"type": "uint256"
						}
					],
					"stateMutability": "view",
					"type": "function"
				},
				{
					"inputs": [],
					"name": "returnNumbers",
					"outputs": [
						{
							"internalType": "uint256[]",
							"name": "",
							"type": "uint256[]"
						}
					],
					"stateMutability": "pure",
					"type": "function"
				},
				{
					"inputs": [
						{
							"internalType": "uint256",
							"name": "amount",
							"type": "uint256"
						}
					],
					"name": "setBalance",
					"outputs": [],
					"stateMutability": "nonpayable",
					"type": "function"
				},
				{
					"inputs": [
						{
							"internalType": "uint256[]",
							"name": "array",
							"type": "uint256[]"
						}
					],
					"name": "sumArray",
					"outputs": [
						{
							"internalType": "uint256",
							"name": "",
							"type": "uint256"
						}
					],
					"stateMutability": "pure",
					"type": "function"
				},
				{
					"inputs": [],
					"name": "viewarr",
					"outputs": [
						{
							"internalType": "uint256[4]",
							"name": "",
							"type": "uint256[4]"
						}
					],
					"stateMutability": "view",
					"type": "function"
				},
				{
					"inputs": [],
					"name": "whileNumbers",
					"outputs": [
						{
							"internalType": "uint256[]",
							"name": "",
							"type": "uint256[]"
						}
					],
					"stateMutability": "pure",
					"type": "function"
				}
			],
			"devdoc": {
				"kind": "dev",
				"methods": {},
				"version": 1
			},
			"evm": {
				"assembly": "    /* \"contracts/arrayExample.sol\":57:2095  contract arrayExample{... */\n  mstore(0x40, 0x80)\n    /* \"contracts/arrayExample.sol\":179:202  uint[4] arr = [2,4,5,5] */\n  mload(0x40)\n  dup1\n  0x80\n  add\n  0x40\n  mstore\n  dup1\n    /* \"contracts/arrayExample.sol\":194:195  2 */\n  0x02\n    /* \"contracts/arrayExample.sol\":179:202  uint[4] arr = [2,4,5,5] */\n  0xff\n  and\n  dup2\n  mstore\n  0x20\n  add\n    /* \"contracts/arrayExample.sol\":196:197  4 */\n  0x04\n    /* \"contracts/arrayExample.sol\":179:202  uint[4] arr = [2,4,5,5] */\n  0xff\n  and\n  dup2\n  mstore\n  0x20\n  add\n    /* \"contracts/arrayExample.sol\":198:199  5 */\n  0x05\n    /* \"contracts/arrayExample.sol\":179:202  uint[4] arr = [2,4,5,5] */\n  0xff\n  and\n  dup2\n  mstore\n  0x20\n  add\n    /* \"contracts/arrayExample.sol\":200:201  5 */\n  0x05\n    /* \"contracts/arrayExample.sol\":179:202  uint[4] arr = [2,4,5,5] */\n  0xff\n  and\n  dup2\n  mstore\n  pop\n  0x00\n  swap1\n  0x04\n  tag_1\n  swap3\n  swap2\n  swap1\n  tag_2\n  jump\t// in\ntag_1:\n  pop\n    /* \"contracts/arrayExample.sol\":57:2095  contract arrayExample{... */\n  callvalue\n  dup1\n  iszero\n  tag_3\n  jumpi\n  0x00\n  dup1\n  revert\ntag_3:\n  pop\n  jump(tag_4)\ntag_2:\n  dup3\n  0x04\n  dup2\n  add\n  swap3\n  dup3\n  iszero\n  tag_5\n  jumpi\n  swap2\n  0x20\n  mul\n  dup3\n  add\ntag_6:\n  dup3\n  dup2\n  gt\n  iszero\n  tag_7\n  jumpi\n  dup3\n  mload\n  dup3\n  swap1\n  0xff\n  and\n  swap1\n  sstore\n  swap2\n  0x20\n  add\n  swap2\n  swap1\n  0x01\n  add\n  swap1\n  jump(tag_6)\ntag_7:\ntag_5:\n  pop\n  swap1\n  pop\n  tag_8\n  swap2\n  swap1\n  tag_9\n  jump\t// in\ntag_8:\n  pop\n  swap1\n  jump\t// out\ntag_9:\ntag_10:\n  dup1\n  dup3\n  gt\n  iszero\n  tag_11\n  jumpi\n  0x00\n  dup2\n  0x00\n  swap1\n  sstore\n  pop\n  0x01\n  add\n  jump(tag_10)\ntag_11:\n  pop\n  swap1\n  jump\t// out\ntag_4:\n  dataSize(sub_0)\n  dup1\n  dataOffset(sub_0)\n  0x00\n  codecopy\n  0x00\n  return\nstop\n\nsub_0: assembly {\n        /* \"contracts/arrayExample.sol\":57:2095  contract arrayExample{... */\n      mstore(0x40, 0x80)\n      callvalue\n      dup1\n      iszero\n      tag_1\n      jumpi\n      0x00\n      dup1\n      revert\n    tag_1:\n      pop\n      jumpi(tag_2, lt(calldatasize, 0x04))\n      shr(0xe0, calldataload(0x00))\n      dup1\n      0xd5ae9409\n      gt\n      tag_11\n      jumpi\n      dup1\n      0xd5ae9409\n      eq\n      tag_7\n      jumpi\n      dup1\n      0xd622e22b\n      eq\n      tag_8\n      jumpi\n      dup1\n      0xf8b2cb4f\n      eq\n      tag_9\n      jumpi\n      dup1\n      0xfb1669ca\n      eq\n      tag_10\n      jumpi\n      jump(tag_2)\n    tag_11:\n      dup1\n      0x1e2aea06\n      eq\n      tag_3\n      jumpi\n      dup1\n      0x27e235e3\n      eq\n      tag_4\n      jumpi\n      dup1\n      0x51b1cfad\n      eq\n      tag_5\n      jumpi\n      dup1\n      0x99b8390a\n      eq\n      tag_6\n      jumpi\n    tag_2:\n      0x00\n      dup1\n      revert\n        /* \"contracts/arrayExample.sol\":808:1015  function sumArray (uint[] memory array ) public pure returns (uint){... */\n    tag_3:\n      tag_12\n      0x04\n      dup1\n      calldatasize\n      sub\n      dup2\n      add\n      swap1\n      tag_13\n      swap2\n      swap1\n      tag_14\n      jump\t// in\n    tag_13:\n      tag_15\n      jump\t// in\n    tag_12:\n      mload(0x40)\n      tag_16\n      swap2\n      swap1\n      tag_17\n      jump\t// in\n    tag_16:\n      mload(0x40)\n      dup1\n      swap2\n      sub\n      swap1\n      return\n        /* \"contracts/arrayExample.sol\":1877:1918  mapping (address => uint) public balances */\n    tag_4:\n      tag_18\n      0x04\n      dup1\n      calldatasize\n      sub\n      dup2\n      add\n      swap1\n      tag_19\n      swap2\n      swap1\n      tag_20\n      jump\t// in\n    tag_19:\n      tag_21\n      jump\t// in\n    tag_18:\n      mload(0x40)\n      tag_22\n      swap2\n      swap1\n      tag_17\n      jump\t// in\n    tag_22:\n      mload(0x40)\n      dup1\n      swap2\n      sub\n      swap1\n      return\n        /* \"contracts/arrayExample.sol\":580:783  function checkAge (uint256 age) public pure returns (string memory){... */\n    tag_5:\n      tag_23\n      0x04\n      dup1\n      calldatasize\n      sub\n      dup2\n      add\n      swap1\n      tag_24\n      swap2\n      swap1\n      tag_25\n      jump\t// in\n    tag_24:\n      tag_26\n      jump\t// in\n    tag_23:\n      mload(0x40)\n      tag_27\n      swap2\n      swap1\n      tag_28\n      jump\t// in\n    tag_27:\n      mload(0x40)\n      dup1\n      swap2\n      sub\n      swap1\n      return\n        /* \"contracts/arrayExample.sol\":1020:1231  function returnNumbers () public pure returns(uint[] memory){... */\n    tag_6:\n      tag_29\n      tag_30\n      jump\t// in\n    tag_29:\n      mload(0x40)\n      tag_31\n      swap2\n      swap1\n      tag_32\n      jump\t// in\n    tag_31:\n      mload(0x40)\n      dup1\n      swap2\n      sub\n      swap1\n      return\n        /* \"contracts/arrayExample.sol\":209:291  function viewarr() public view returns (uint[4] memory){... */\n    tag_7:\n      tag_33\n      tag_34\n      jump\t// in\n    tag_33:\n      mload(0x40)\n      tag_35\n      swap2\n      swap1\n      tag_36\n      jump\t// in\n    tag_35:\n      mload(0x40)\n      dup1\n      swap2\n      sub\n      swap1\n      return\n        /* \"contracts/arrayExample.sol\":1503:1862  function whileNumbers() public pure returns (uint[] memory) {... */\n    tag_8:\n      tag_37\n      tag_38\n      jump\t// in\n    tag_37:\n      mload(0x40)\n      tag_39\n      swap2\n      swap1\n      tag_32\n      jump\t// in\n    tag_39:\n      mload(0x40)\n      dup1\n      swap2\n      sub\n      swap1\n      return\n        /* \"contracts/arrayExample.sol\":2000:2088  function getBalance (address user) public view returns (uint) {... */\n    tag_9:\n      tag_40\n      0x04\n      dup1\n      calldatasize\n      sub\n      dup2\n      add\n      swap1\n      tag_41\n      swap2\n      swap1\n      tag_20\n      jump\t// in\n    tag_41:\n      tag_42\n      jump\t// in\n    tag_40:\n      mload(0x40)\n      tag_43\n      swap2\n      swap1\n      tag_17\n      jump\t// in\n    tag_43:\n      mload(0x40)\n      dup1\n      swap2\n      sub\n      swap1\n      return\n        /* \"contracts/arrayExample.sol\":1920:1998  function setBalance(uint amount) public {... */\n    tag_10:\n      tag_44\n      0x04\n      dup1\n      calldatasize\n      sub\n      dup2\n      add\n      swap1\n      tag_45\n      swap2\n      swap1\n      tag_25\n      jump\t// in\n    tag_45:\n      tag_46\n      jump\t// in\n    tag_44:\n      stop\n        /* \"contracts/arrayExample.sol\":808:1015  function sumArray (uint[] memory array ) public pure returns (uint){... */\n    tag_15:\n        /* \"contracts/arrayExample.sol\":870:874  uint */\n      0x00\n        /* \"contracts/arrayExample.sol\":885:893  uint sum */\n      dup1\n        /* \"contracts/arrayExample.sol\":896:897  0 */\n      0x00\n        /* \"contracts/arrayExample.sol\":885:897  uint sum = 0 */\n      swap1\n      pop\n        /* \"contracts/arrayExample.sol\":913:919  uint i */\n      0x00\n        /* \"contracts/arrayExample.sol\":908:987  for (uint i = 0; i < array.length; i++){... */\n    tag_48:\n        /* \"contracts/arrayExample.sol\":929:934  array */\n      dup4\n        /* \"contracts/arrayExample.sol\":929:941  array.length */\n      mload\n        /* \"contracts/arrayExample.sol\":925:926  i */\n      dup2\n        /* \"contracts/arrayExample.sol\":925:941  i < array.length */\n      lt\n        /* \"contracts/arrayExample.sol\":908:987  for (uint i = 0; i < array.length; i++){... */\n      iszero\n      tag_49\n      jumpi\n        /* \"contracts/arrayExample.sol\":968:973  array */\n      dup4\n        /* \"contracts/arrayExample.sol\":974:975  1 */\n      0x01\n        /* \"contracts/arrayExample.sol\":968:976  array[1] */\n      dup2\n      mload\n      dup2\n      lt\n      tag_51\n      jumpi\n      tag_52\n      tag_53\n      jump\t// in\n    tag_52:\n    tag_51:\n      0x20\n      mul\n      0x20\n      add\n      add\n      mload\n        /* \"contracts/arrayExample.sol\":961:976  sum += array[1] */\n      dup3\n      tag_54\n      swap2\n      swap1\n      tag_55\n      jump\t// in\n    tag_54:\n      swap2\n      pop\n        /* \"contracts/arrayExample.sol\":943:946  i++ */\n      dup1\n      dup1\n      0x01\n      add\n      swap2\n      pop\n      pop\n        /* \"contracts/arrayExample.sol\":908:987  for (uint i = 0; i < array.length; i++){... */\n      jump(tag_48)\n    tag_49:\n      pop\n        /* \"contracts/arrayExample.sol\":1004:1007  sum */\n      dup1\n        /* \"contracts/arrayExample.sol\":997:1007  return sum */\n      swap2\n      pop\n      pop\n        /* \"contracts/arrayExample.sol\":808:1015  function sumArray (uint[] memory array ) public pure returns (uint){... */\n      swap2\n      swap1\n      pop\n      jump\t// out\n        /* \"contracts/arrayExample.sol\":1877:1918  mapping (address => uint) public balances */\n    tag_21:\n      mstore(0x20, 0x04)\n      dup1\n      0x00\n      mstore\n      keccak256(0x00, 0x40)\n      0x00\n      swap2\n      pop\n      swap1\n      pop\n      sload\n      dup2\n      jump\t// out\n        /* \"contracts/arrayExample.sol\":580:783  function checkAge (uint256 age) public pure returns (string memory){... */\n    tag_26:\n        /* \"contracts/arrayExample.sol\":633:646  string memory */\n      0x60\n        /* \"contracts/arrayExample.sol\":668:670  18 */\n      0x12\n        /* \"contracts/arrayExample.sol\":661:664  age */\n      dup3\n        /* \"contracts/arrayExample.sol\":661:670  age >= 18 */\n      lt\n        /* \"contracts/arrayExample.sol\":657:777  if (age >= 18){... */\n      tag_57\n      jumpi\n        /* \"contracts/arrayExample.sol\":685:703  return \"you be OG\" */\n      mload(0x40)\n      dup1\n      0x40\n      add\n      0x40\n      mstore\n      dup1\n      0x09\n      dup2\n      mstore\n      0x20\n      add\n      0x796f75206265204f470000000000000000000000000000000000000000000000\n      dup2\n      mstore\n      pop\n      swap1\n      pop\n      jump(tag_56)\n        /* \"contracts/arrayExample.sol\":657:777  if (age >= 18){... */\n    tag_57:\n        /* \"contracts/arrayExample.sol\":742:766  return \"you be underage\" */\n      mload(0x40)\n      dup1\n      0x40\n      add\n      0x40\n      mstore\n      dup1\n      0x0f\n      dup2\n      mstore\n      0x20\n      add\n      0x796f7520626520756e6465726167650000000000000000000000000000000000\n      dup2\n      mstore\n      pop\n      swap1\n      pop\n        /* \"contracts/arrayExample.sol\":580:783  function checkAge (uint256 age) public pure returns (string memory){... */\n    tag_56:\n      swap2\n      swap1\n      pop\n      jump\t// out\n        /* \"contracts/arrayExample.sol\":1020:1231  function returnNumbers () public pure returns(uint[] memory){... */\n    tag_30:\n        /* \"contracts/arrayExample.sol\":1066:1079  uint[] memory */\n      0x60\n        /* \"contracts/arrayExample.sol\":1086:1107  uint[] memory numbers */\n      0x00\n        /* \"contracts/arrayExample.sol\":1121:1124  100 */\n      0x64\n        /* \"contracts/arrayExample.sol\":1110:1125  new uint[](100) */\n      0xffffffffffffffff\n      dup2\n      gt\n      iszero\n      tag_60\n      jumpi\n      tag_61\n      tag_62\n      jump\t// in\n    tag_61:\n    tag_60:\n      mload(0x40)\n      swap1\n      dup1\n      dup3\n      mstore\n      dup1\n      0x20\n      mul\n      0x20\n      add\n      dup3\n      add\n      0x40\n      mstore\n      dup1\n      iszero\n      tag_63\n      jumpi\n      dup2\n      0x20\n      add\n      0x20\n      dup3\n      mul\n      dup1\n      calldatasize\n      dup4\n      calldatacopy\n      dup1\n      dup3\n      add\n      swap2\n      pop\n      pop\n      swap1\n      pop\n    tag_63:\n      pop\n        /* \"contracts/arrayExample.sol\":1086:1125  uint[] memory numbers = new uint[](100) */\n      swap1\n      pop\n        /* \"contracts/arrayExample.sol\":1137:1143  uint i */\n      0x00\n        /* \"contracts/arrayExample.sol\":1132:1205  for (uint i = 0; i < numbers.length ; i++){... */\n    tag_64:\n        /* \"contracts/arrayExample.sol\":1153:1160  numbers */\n      dup2\n        /* \"contracts/arrayExample.sol\":1153:1167  numbers.length */\n      mload\n        /* \"contracts/arrayExample.sol\":1149:1150  i */\n      dup2\n        /* \"contracts/arrayExample.sol\":1149:1167  i < numbers.length */\n      lt\n        /* \"contracts/arrayExample.sol\":1132:1205  for (uint i = 0; i < numbers.length ; i++){... */\n      iszero\n      tag_65\n      jumpi\n        /* \"contracts/arrayExample.sol\":1197:1198  i */\n      dup1\n        /* \"contracts/arrayExample.sol\":1184:1191  numbers */\n      dup3\n        /* \"contracts/arrayExample.sol\":1192:1193  i */\n      dup3\n        /* \"contracts/arrayExample.sol\":1184:1194  numbers[i] */\n      dup2\n      mload\n      dup2\n      lt\n      tag_67\n      jumpi\n      tag_68\n      tag_53\n      jump\t// in\n    tag_68:\n    tag_67:\n      0x20\n      mul\n      0x20\n      add\n      add\n        /* \"contracts/arrayExample.sol\":1184:1198  numbers[i] = i */\n      dup2\n      dup2\n      mstore\n      pop\n      pop\n        /* \"contracts/arrayExample.sol\":1170:1173  i++ */\n      dup1\n      dup1\n      0x01\n      add\n      swap2\n      pop\n      pop\n        /* \"contracts/arrayExample.sol\":1132:1205  for (uint i = 0; i < numbers.length ; i++){... */\n      jump(tag_64)\n    tag_65:\n      pop\n        /* \"contracts/arrayExample.sol\":1218:1225  numbers */\n      dup1\n        /* \"contracts/arrayExample.sol\":1211:1225  return numbers */\n      swap2\n      pop\n      pop\n        /* \"contracts/arrayExample.sol\":1020:1231  function returnNumbers () public pure returns(uint[] memory){... */\n      swap1\n      jump\t// out\n        /* \"contracts/arrayExample.sol\":209:291  function viewarr() public view returns (uint[4] memory){... */\n    tag_34:\n        /* \"contracts/arrayExample.sol\":249:263  uint[4] memory */\n      tag_69\n      tag_70\n      jump\t// in\n    tag_69:\n        /* \"contracts/arrayExample.sol\":281:284  arr */\n      0x00\n        /* \"contracts/arrayExample.sol\":274:284  return arr */\n      0x04\n      dup1\n      0x20\n      mul\n      mload(0x40)\n      swap1\n      dup2\n      add\n      0x40\n      mstore\n      dup1\n      swap3\n      swap2\n      swap1\n      dup3\n      0x04\n      dup1\n      iszero\n      tag_72\n      jumpi\n      0x20\n      mul\n      dup3\n      add\n      swap2\n    tag_73:\n      dup2\n      sload\n      dup2\n      mstore\n      0x20\n      add\n      swap1\n      0x01\n      add\n      swap1\n      dup1\n      dup4\n      gt\n      tag_73\n      jumpi\n    tag_72:\n      pop\n      pop\n      pop\n      pop\n      pop\n      swap1\n      pop\n        /* \"contracts/arrayExample.sol\":209:291  function viewarr() public view returns (uint[4] memory){... */\n      swap1\n      jump\t// out\n        /* \"contracts/arrayExample.sol\":1503:1862  function whileNumbers() public pure returns (uint[] memory) {... */\n    tag_38:\n        /* \"contracts/arrayExample.sol\":1548:1561  uint[] memory */\n      0x60\n        /* \"contracts/arrayExample.sol\":1598:1618  uint[] memory number */\n      0x00\n        /* \"contracts/arrayExample.sol\":1632:1635  100 */\n      0x64\n        /* \"contracts/arrayExample.sol\":1621:1636  new uint[](100) */\n      0xffffffffffffffff\n      dup2\n      gt\n      iszero\n      tag_75\n      jumpi\n      tag_76\n      tag_62\n      jump\t// in\n    tag_76:\n    tag_75:\n      mload(0x40)\n      swap1\n      dup1\n      dup3\n      mstore\n      dup1\n      0x20\n      mul\n      0x20\n      add\n      dup3\n      add\n      0x40\n      mstore\n      dup1\n      iszero\n      tag_77\n      jumpi\n      dup2\n      0x20\n      add\n      0x20\n      dup3\n      mul\n      dup1\n      calldatasize\n      dup4\n      calldatacopy\n      dup1\n      dup3\n      add\n      swap2\n      pop\n      pop\n      swap1\n      pop\n    tag_77:\n      pop\n        /* \"contracts/arrayExample.sol\":1598:1636  uint[] memory number = new uint[](100) */\n      swap1\n      pop\n        /* \"contracts/arrayExample.sol\":1695:1705  uint index */\n      0x00\n        /* \"contracts/arrayExample.sol\":1720:1840  while(index < 100){... */\n    tag_78:\n        /* \"contracts/arrayExample.sol\":1734:1737  100 */\n      0x64\n        /* \"contracts/arrayExample.sol\":1726:1731  index */\n      dup2\n        /* \"contracts/arrayExample.sol\":1726:1737  index < 100 */\n      lt\n        /* \"contracts/arrayExample.sol\":1720:1840  while(index < 100){... */\n      iszero\n      tag_79\n      jumpi\n        /* \"contracts/arrayExample.sol\":1771:1772  1 */\n      0x01\n        /* \"contracts/arrayExample.sol\":1764:1769  index */\n      dup2\n        /* \"contracts/arrayExample.sol\":1764:1772  index +1 */\n      tag_80\n      swap2\n      swap1\n      tag_55\n      jump\t// in\n    tag_80:\n        /* \"contracts/arrayExample.sol\":1748:1754  number */\n      dup3\n        /* \"contracts/arrayExample.sol\":1755:1760  index */\n      dup3\n        /* \"contracts/arrayExample.sol\":1748:1761  number[index] */\n      dup2\n      mload\n      dup2\n      lt\n      tag_81\n      jumpi\n      tag_82\n      tag_53\n      jump\t// in\n    tag_82:\n    tag_81:\n      0x20\n      mul\n      0x20\n      add\n      add\n        /* \"contracts/arrayExample.sol\":1748:1772  number[index] = index +1 */\n      dup2\n      dup2\n      mstore\n      pop\n      pop\n        /* \"contracts/arrayExample.sol\":1826:1833  index++ */\n      dup1\n      dup1\n      tag_83\n      swap1\n      tag_84\n      jump\t// in\n    tag_83:\n      swap2\n      pop\n      pop\n        /* \"contracts/arrayExample.sol\":1720:1840  while(index < 100){... */\n      jump(tag_78)\n    tag_79:\n        /* \"contracts/arrayExample.sol\":1853:1859  number */\n      dup2\n        /* \"contracts/arrayExample.sol\":1846:1859  return number */\n      swap3\n      pop\n      pop\n      pop\n        /* \"contracts/arrayExample.sol\":1503:1862  function whileNumbers() public pure returns (uint[] memory) {... */\n      swap1\n      jump\t// out\n        /* \"contracts/arrayExample.sol\":2000:2088  function getBalance (address user) public view returns (uint) {... */\n    tag_42:\n        /* \"contracts/arrayExample.sol\":2056:2060  uint */\n      0x00\n        /* \"contracts/arrayExample.sol\":2071:2079  balances */\n      0x04\n        /* \"contracts/arrayExample.sol\":2071:2085  balances[user] */\n      0x00\n        /* \"contracts/arrayExample.sol\":2080:2084  user */\n      dup4\n        /* \"contracts/arrayExample.sol\":2071:2085  balances[user] */\n      0xffffffffffffffffffffffffffffffffffffffff\n      and\n      0xffffffffffffffffffffffffffffffffffffffff\n      and\n      dup2\n      mstore\n      0x20\n      add\n      swap1\n      dup2\n      mstore\n      0x20\n      add\n      0x00\n      keccak256\n      sload\n        /* \"contracts/arrayExample.sol\":2064:2085  return balances[user] */\n      swap1\n      pop\n        /* \"contracts/arrayExample.sol\":2000:2088  function getBalance (address user) public view returns (uint) {... */\n      swap2\n      swap1\n      pop\n      jump\t// out\n        /* \"contracts/arrayExample.sol\":1920:1998  function setBalance(uint amount) public {... */\n    tag_46:\n        /* \"contracts/arrayExample.sol\":1989:1995  amount */\n      dup1\n        /* \"contracts/arrayExample.sol\":1966:1974  balances */\n      0x04\n        /* \"contracts/arrayExample.sol\":1966:1986  balances[msg.sender] */\n      0x00\n        /* \"contracts/arrayExample.sol\":1975:1985  msg.sender */\n      caller\n        /* \"contracts/arrayExample.sol\":1966:1986  balances[msg.sender] */\n      0xffffffffffffffffffffffffffffffffffffffff\n      and\n      0xffffffffffffffffffffffffffffffffffffffff\n      and\n      dup2\n      mstore\n      0x20\n      add\n      swap1\n      dup2\n      mstore\n      0x20\n      add\n      0x00\n      keccak256\n        /* \"contracts/arrayExample.sol\":1966:1995  balances[msg.sender] = amount */\n      dup2\n      swap1\n      sstore\n      pop\n        /* \"contracts/arrayExample.sol\":1920:1998  function setBalance(uint amount) public {... */\n      pop\n      jump\t// out\n    tag_70:\n      mload(0x40)\n      dup1\n      0x80\n      add\n      0x40\n      mstore\n      dup1\n      0x04\n      swap1\n      0x20\n      dup3\n      mul\n      dup1\n      calldatasize\n      dup4\n      calldatacopy\n      dup1\n      dup3\n      add\n      swap2\n      pop\n      pop\n      swap1\n      pop\n      pop\n      swap1\n      jump\t// out\n        /* \"#utility.yul\":7:82   */\n    tag_87:\n        /* \"#utility.yul\":40:46   */\n      0x00\n        /* \"#utility.yul\":73:75   */\n      0x40\n        /* \"#utility.yul\":67:76   */\n      mload\n        /* \"#utility.yul\":57:76   */\n      swap1\n      pop\n        /* \"#utility.yul\":7:82   */\n      swap1\n      jump\t// out\n        /* \"#utility.yul\":88:205   */\n    tag_88:\n        /* \"#utility.yul\":197:198   */\n      0x00\n        /* \"#utility.yul\":194:195   */\n      dup1\n        /* \"#utility.yul\":187:199   */\n      revert\n        /* \"#utility.yul\":211:328   */\n    tag_89:\n        /* \"#utility.yul\":320:321   */\n      0x00\n        /* \"#utility.yul\":317:318   */\n      dup1\n        /* \"#utility.yul\":310:322   */\n      revert\n        /* \"#utility.yul\":334:451   */\n    tag_90:\n        /* \"#utility.yul\":443:444   */\n      0x00\n        /* \"#utility.yul\":440:441   */\n      dup1\n        /* \"#utility.yul\":433:445   */\n      revert\n        /* \"#utility.yul\":457:559   */\n    tag_91:\n        /* \"#utility.yul\":498:504   */\n      0x00\n        /* \"#utility.yul\":549:551   */\n      0x1f\n        /* \"#utility.yul\":545:552   */\n      not\n        /* \"#utility.yul\":540:542   */\n      0x1f\n        /* \"#utility.yul\":533:538   */\n      dup4\n        /* \"#utility.yul\":529:543   */\n      add\n        /* \"#utility.yul\":525:553   */\n      and\n        /* \"#utility.yul\":515:553   */\n      swap1\n      pop\n        /* \"#utility.yul\":457:559   */\n      swap2\n      swap1\n      pop\n      jump\t// out\n        /* \"#utility.yul\":565:745   */\n    tag_62:\n        /* \"#utility.yul\":613:690   */\n      0x4e487b7100000000000000000000000000000000000000000000000000000000\n        /* \"#utility.yul\":610:611   */\n      0x00\n        /* \"#utility.yul\":603:691   */\n      mstore\n        /* \"#utility.yul\":710:714   */\n      0x41\n        /* \"#utility.yul\":707:708   */\n      0x04\n        /* \"#utility.yul\":700:715   */\n      mstore\n        /* \"#utility.yul\":734:738   */\n      0x24\n        /* \"#utility.yul\":731:732   */\n      0x00\n        /* \"#utility.yul\":724:739   */\n      revert\n        /* \"#utility.yul\":751:1032   */\n    tag_92:\n        /* \"#utility.yul\":834:861   */\n      tag_131\n        /* \"#utility.yul\":856:860   */\n      dup3\n        /* \"#utility.yul\":834:861   */\n      tag_91\n      jump\t// in\n    tag_131:\n        /* \"#utility.yul\":826:832   */\n      dup2\n        /* \"#utility.yul\":822:862   */\n      add\n        /* \"#utility.yul\":964:970   */\n      dup2\n        /* \"#utility.yul\":952:962   */\n      dup2\n        /* \"#utility.yul\":949:971   */\n      lt\n        /* \"#utility.yul\":928:946   */\n      0xffffffffffffffff\n        /* \"#utility.yul\":916:926   */\n      dup3\n        /* \"#utility.yul\":913:947   */\n      gt\n        /* \"#utility.yul\":910:972   */\n      or\n        /* \"#utility.yul\":907:995   */\n      iszero\n      tag_132\n      jumpi\n        /* \"#utility.yul\":975:993   */\n      tag_133\n      tag_62\n      jump\t// in\n    tag_133:\n        /* \"#utility.yul\":907:995   */\n    tag_132:\n        /* \"#utility.yul\":1015:1025   */\n      dup1\n        /* \"#utility.yul\":1011:1013   */\n      0x40\n        /* \"#utility.yul\":1004:1026   */\n      mstore\n        /* \"#utility.yul\":794:1032   */\n      pop\n        /* \"#utility.yul\":751:1032   */\n      pop\n      pop\n      jump\t// out\n        /* \"#utility.yul\":1038:1167   */\n    tag_93:\n        /* \"#utility.yul\":1072:1078   */\n      0x00\n        /* \"#utility.yul\":1099:1119   */\n      tag_135\n      tag_87\n      jump\t// in\n    tag_135:\n        /* \"#utility.yul\":1089:1119   */\n      swap1\n      pop\n        /* \"#utility.yul\":1128:1161   */\n      tag_136\n        /* \"#utility.yul\":1156:1160   */\n      dup3\n        /* \"#utility.yul\":1148:1154   */\n      dup3\n        /* \"#utility.yul\":1128:1161   */\n      tag_92\n      jump\t// in\n    tag_136:\n        /* \"#utility.yul\":1038:1167   */\n      swap2\n      swap1\n      pop\n      jump\t// out\n        /* \"#utility.yul\":1173:1484   */\n    tag_94:\n        /* \"#utility.yul\":1250:1254   */\n      0x00\n        /* \"#utility.yul\":1340:1358   */\n      0xffffffffffffffff\n        /* \"#utility.yul\":1332:1338   */\n      dup3\n        /* \"#utility.yul\":1329:1359   */\n      gt\n        /* \"#utility.yul\":1326:1382   */\n      iszero\n      tag_138\n      jumpi\n        /* \"#utility.yul\":1362:1380   */\n      tag_139\n      tag_62\n      jump\t// in\n    tag_139:\n        /* \"#utility.yul\":1326:1382   */\n    tag_138:\n        /* \"#utility.yul\":1412:1416   */\n      0x20\n        /* \"#utility.yul\":1404:1410   */\n      dup3\n        /* \"#utility.yul\":1400:1417   */\n      mul\n        /* \"#utility.yul\":1392:1417   */\n      swap1\n      pop\n        /* \"#utility.yul\":1472:1476   */\n      0x20\n        /* \"#utility.yul\":1466:1470   */\n      dup2\n        /* \"#utility.yul\":1462:1477   */\n      add\n        /* \"#utility.yul\":1454:1477   */\n      swap1\n      pop\n        /* \"#utility.yul\":1173:1484   */\n      swap2\n      swap1\n      pop\n      jump\t// out\n        /* \"#utility.yul\":1490:1607   */\n    tag_95:\n        /* \"#utility.yul\":1599:1600   */\n      0x00\n        /* \"#utility.yul\":1596:1597   */\n      dup1\n        /* \"#utility.yul\":1589:1601   */\n      revert\n        /* \"#utility.yul\":1613:1690   */\n    tag_96:\n        /* \"#utility.yul\":1650:1657   */\n      0x00\n        /* \"#utility.yul\":1679:1684   */\n      dup2\n        /* \"#utility.yul\":1668:1684   */\n      swap1\n      pop\n        /* \"#utility.yul\":1613:1690   */\n      swap2\n      swap1\n      pop\n      jump\t// out\n        /* \"#utility.yul\":1696:1818   */\n    tag_97:\n        /* \"#utility.yul\":1769:1793   */\n      tag_143\n        /* \"#utility.yul\":1787:1792   */\n      dup2\n        /* \"#utility.yul\":1769:1793   */\n      tag_96\n      jump\t// in\n    tag_143:\n        /* \"#utility.yul\":1762:1767   */\n      dup2\n        /* \"#utility.yul\":1759:1794   */\n      eq\n        /* \"#utility.yul\":1749:1812   */\n      tag_144\n      jumpi\n        /* \"#utility.yul\":1808:1809   */\n      0x00\n        /* \"#utility.yul\":1805:1806   */\n      dup1\n        /* \"#utility.yul\":1798:1810   */\n      revert\n        /* \"#utility.yul\":1749:1812   */\n    tag_144:\n        /* \"#utility.yul\":1696:1818   */\n      pop\n      jump\t// out\n        /* \"#utility.yul\":1824:1963   */\n    tag_98:\n        /* \"#utility.yul\":1870:1875   */\n      0x00\n        /* \"#utility.yul\":1908:1914   */\n      dup2\n        /* \"#utility.yul\":1895:1915   */\n      calldataload\n        /* \"#utility.yul\":1886:1915   */\n      swap1\n      pop\n        /* \"#utility.yul\":1924:1957   */\n      tag_146\n        /* \"#utility.yul\":1951:1956   */\n      dup2\n        /* \"#utility.yul\":1924:1957   */\n      tag_97\n      jump\t// in\n    tag_146:\n        /* \"#utility.yul\":1824:1963   */\n      swap3\n      swap2\n      pop\n      pop\n      jump\t// out\n        /* \"#utility.yul\":1986:2696   */\n    tag_99:\n        /* \"#utility.yul\":2082:2087   */\n      0x00\n        /* \"#utility.yul\":2107:2188   */\n      tag_148\n        /* \"#utility.yul\":2123:2187   */\n      tag_149\n        /* \"#utility.yul\":2180:2186   */\n      dup5\n        /* \"#utility.yul\":2123:2187   */\n      tag_94\n      jump\t// in\n    tag_149:\n        /* \"#utility.yul\":2107:2188   */\n      tag_93\n      jump\t// in\n    tag_148:\n        /* \"#utility.yul\":2098:2188   */\n      swap1\n      pop\n        /* \"#utility.yul\":2208:2213   */\n      dup1\n        /* \"#utility.yul\":2237:2243   */\n      dup4\n        /* \"#utility.yul\":2230:2235   */\n      dup3\n        /* \"#utility.yul\":2223:2244   */\n      mstore\n        /* \"#utility.yul\":2271:2275   */\n      0x20\n        /* \"#utility.yul\":2264:2269   */\n      dup3\n        /* \"#utility.yul\":2260:2276   */\n      add\n        /* \"#utility.yul\":2253:2276   */\n      swap1\n      pop\n        /* \"#utility.yul\":2324:2328   */\n      0x20\n        /* \"#utility.yul\":2316:2322   */\n      dup5\n        /* \"#utility.yul\":2312:2329   */\n      mul\n        /* \"#utility.yul\":2304:2310   */\n      dup4\n        /* \"#utility.yul\":2300:2330   */\n      add\n        /* \"#utility.yul\":2353:2356   */\n      dup6\n        /* \"#utility.yul\":2345:2351   */\n      dup2\n        /* \"#utility.yul\":2342:2357   */\n      gt\n        /* \"#utility.yul\":2339:2461   */\n      iszero\n      tag_150\n      jumpi\n        /* \"#utility.yul\":2372:2451   */\n      tag_151\n      tag_95\n      jump\t// in\n    tag_151:\n        /* \"#utility.yul\":2339:2461   */\n    tag_150:\n        /* \"#utility.yul\":2487:2493   */\n      dup4\n        /* \"#utility.yul\":2470:2690   */\n    tag_152:\n        /* \"#utility.yul\":2504:2510   */\n      dup2\n        /* \"#utility.yul\":2499:2502   */\n      dup2\n        /* \"#utility.yul\":2496:2511   */\n      lt\n        /* \"#utility.yul\":2470:2690   */\n      iszero\n      tag_154\n      jumpi\n        /* \"#utility.yul\":2579:2582   */\n      dup1\n        /* \"#utility.yul\":2608:2645   */\n      tag_155\n        /* \"#utility.yul\":2641:2644   */\n      dup9\n        /* \"#utility.yul\":2629:2639   */\n      dup3\n        /* \"#utility.yul\":2608:2645   */\n      tag_98\n      jump\t// in\n    tag_155:\n        /* \"#utility.yul\":2603:2606   */\n      dup5\n        /* \"#utility.yul\":2596:2646   */\n      mstore\n        /* \"#utility.yul\":2675:2679   */\n      0x20\n        /* \"#utility.yul\":2670:2673   */\n      dup5\n        /* \"#utility.yul\":2666:2680   */\n      add\n        /* \"#utility.yul\":2659:2680   */\n      swap4\n      pop\n        /* \"#utility.yul\":2546:2690   */\n      pop\n        /* \"#utility.yul\":2530:2534   */\n      0x20\n        /* \"#utility.yul\":2525:2528   */\n      dup2\n        /* \"#utility.yul\":2521:2535   */\n      add\n        /* \"#utility.yul\":2514:2535   */\n      swap1\n      pop\n        /* \"#utility.yul\":2470:2690   */\n      jump(tag_152)\n    tag_154:\n        /* \"#utility.yul\":2474:2495   */\n      pop\n        /* \"#utility.yul\":2088:2696   */\n      pop\n      pop\n        /* \"#utility.yul\":1986:2696   */\n      swap4\n      swap3\n      pop\n      pop\n      pop\n      jump\t// out\n        /* \"#utility.yul\":2719:3089   */\n    tag_100:\n        /* \"#utility.yul\":2790:2795   */\n      0x00\n        /* \"#utility.yul\":2839:2842   */\n      dup3\n        /* \"#utility.yul\":2832:2836   */\n      0x1f\n        /* \"#utility.yul\":2824:2830   */\n      dup4\n        /* \"#utility.yul\":2820:2837   */\n      add\n        /* \"#utility.yul\":2816:2843   */\n      slt\n        /* \"#utility.yul\":2806:2928   */\n      tag_157\n      jumpi\n        /* \"#utility.yul\":2847:2926   */\n      tag_158\n      tag_90\n      jump\t// in\n    tag_158:\n        /* \"#utility.yul\":2806:2928   */\n    tag_157:\n        /* \"#utility.yul\":2964:2970   */\n      dup2\n        /* \"#utility.yul\":2951:2971   */\n      calldataload\n        /* \"#utility.yul\":2989:3083   */\n      tag_159\n        /* \"#utility.yul\":3079:3082   */\n      dup5\n        /* \"#utility.yul\":3071:3077   */\n      dup3\n        /* \"#utility.yul\":3064:3068   */\n      0x20\n        /* \"#utility.yul\":3056:3062   */\n      dup7\n        /* \"#utility.yul\":3052:3069   */\n      add\n        /* \"#utility.yul\":2989:3083   */\n      tag_99\n      jump\t// in\n    tag_159:\n        /* \"#utility.yul\":2980:3083   */\n      swap2\n      pop\n        /* \"#utility.yul\":2796:3089   */\n      pop\n        /* \"#utility.yul\":2719:3089   */\n      swap3\n      swap2\n      pop\n      pop\n      jump\t// out\n        /* \"#utility.yul\":3095:3634   */\n    tag_14:\n        /* \"#utility.yul\":3179:3185   */\n      0x00\n        /* \"#utility.yul\":3228:3230   */\n      0x20\n        /* \"#utility.yul\":3216:3225   */\n      dup3\n        /* \"#utility.yul\":3207:3214   */\n      dup5\n        /* \"#utility.yul\":3203:3226   */\n      sub\n        /* \"#utility.yul\":3199:3231   */\n      slt\n        /* \"#utility.yul\":3196:3315   */\n      iszero\n      tag_161\n      jumpi\n        /* \"#utility.yul\":3234:3313   */\n      tag_162\n      tag_88\n      jump\t// in\n    tag_162:\n        /* \"#utility.yul\":3196:3315   */\n    tag_161:\n        /* \"#utility.yul\":3382:3383   */\n      0x00\n        /* \"#utility.yul\":3371:3380   */\n      dup3\n        /* \"#utility.yul\":3367:3384   */\n      add\n        /* \"#utility.yul\":3354:3385   */\n      calldataload\n        /* \"#utility.yul\":3412:3430   */\n      0xffffffffffffffff\n        /* \"#utility.yul\":3404:3410   */\n      dup2\n        /* \"#utility.yul\":3401:3431   */\n      gt\n        /* \"#utility.yul\":3398:3515   */\n      iszero\n      tag_163\n      jumpi\n        /* \"#utility.yul\":3434:3513   */\n      tag_164\n      tag_89\n      jump\t// in\n    tag_164:\n        /* \"#utility.yul\":3398:3515   */\n    tag_163:\n        /* \"#utility.yul\":3539:3617   */\n      tag_165\n        /* \"#utility.yul\":3609:3616   */\n      dup5\n        /* \"#utility.yul\":3600:3606   */\n      dup3\n        /* \"#utility.yul\":3589:3598   */\n      dup6\n        /* \"#utility.yul\":3585:3607   */\n      add\n        /* \"#utility.yul\":3539:3617   */\n      tag_100\n      jump\t// in\n    tag_165:\n        /* \"#utility.yul\":3529:3617   */\n      swap2\n      pop\n        /* \"#utility.yul\":3325:3627   */\n      pop\n        /* \"#utility.yul\":3095:3634   */\n      swap3\n      swap2\n      pop\n      pop\n      jump\t// out\n        /* \"#utility.yul\":3640:3758   */\n    tag_101:\n        /* \"#utility.yul\":3727:3751   */\n      tag_167\n        /* \"#utility.yul\":3745:3750   */\n      dup2\n        /* \"#utility.yul\":3727:3751   */\n      tag_96\n      jump\t// in\n    tag_167:\n        /* \"#utility.yul\":3722:3725   */\n      dup3\n        /* \"#utility.yul\":3715:3752   */\n      mstore\n        /* \"#utility.yul\":3640:3758   */\n      pop\n      pop\n      jump\t// out\n        /* \"#utility.yul\":3764:3986   */\n    tag_17:\n        /* \"#utility.yul\":3857:3861   */\n      0x00\n        /* \"#utility.yul\":3895:3897   */\n      0x20\n        /* \"#utility.yul\":3884:3893   */\n      dup3\n        /* \"#utility.yul\":3880:3898   */\n      add\n        /* \"#utility.yul\":3872:3898   */\n      swap1\n      pop\n        /* \"#utility.yul\":3908:3979   */\n      tag_169\n        /* \"#utility.yul\":3976:3977   */\n      0x00\n        /* \"#utility.yul\":3965:3974   */\n      dup4\n        /* \"#utility.yul\":3961:3978   */\n      add\n        /* \"#utility.yul\":3952:3958   */\n      dup5\n        /* \"#utility.yul\":3908:3979   */\n      tag_101\n      jump\t// in\n    tag_169:\n        /* \"#utility.yul\":3764:3986   */\n      swap3\n      swap2\n      pop\n      pop\n      jump\t// out\n        /* \"#utility.yul\":3992:4118   */\n    tag_102:\n        /* \"#utility.yul\":4029:4036   */\n      0x00\n        /* \"#utility.yul\":4069:4111   */\n      0xffffffffffffffffffffffffffffffffffffffff\n        /* \"#utility.yul\":4062:4067   */\n      dup3\n        /* \"#utility.yul\":4058:4112   */\n      and\n        /* \"#utility.yul\":4047:4112   */\n      swap1\n      pop\n        /* \"#utility.yul\":3992:4118   */\n      swap2\n      swap1\n      pop\n      jump\t// out\n        /* \"#utility.yul\":4124:4220   */\n    tag_103:\n        /* \"#utility.yul\":4161:4168   */\n      0x00\n        /* \"#utility.yul\":4190:4214   */\n      tag_172\n        /* \"#utility.yul\":4208:4213   */\n      dup3\n        /* \"#utility.yul\":4190:4214   */\n      tag_102\n      jump\t// in\n    tag_172:\n        /* \"#utility.yul\":4179:4214   */\n      swap1\n      pop\n        /* \"#utility.yul\":4124:4220   */\n      swap2\n      swap1\n      pop\n      jump\t// out\n        /* \"#utility.yul\":4226:4348   */\n    tag_104:\n        /* \"#utility.yul\":4299:4323   */\n      tag_174\n        /* \"#utility.yul\":4317:4322   */\n      dup2\n        /* \"#utility.yul\":4299:4323   */\n      tag_103\n      jump\t// in\n    tag_174:\n        /* \"#utility.yul\":4292:4297   */\n      dup2\n        /* \"#utility.yul\":4289:4324   */\n      eq\n        /* \"#utility.yul\":4279:4342   */\n      tag_175\n      jumpi\n        /* \"#utility.yul\":4338:4339   */\n      0x00\n        /* \"#utility.yul\":4335:4336   */\n      dup1\n        /* \"#utility.yul\":4328:4340   */\n      revert\n        /* \"#utility.yul\":4279:4342   */\n    tag_175:\n        /* \"#utility.yul\":4226:4348   */\n      pop\n      jump\t// out\n        /* \"#utility.yul\":4354:4493   */\n    tag_105:\n        /* \"#utility.yul\":4400:4405   */\n      0x00\n        /* \"#utility.yul\":4438:4444   */\n      dup2\n        /* \"#utility.yul\":4425:4445   */\n      calldataload\n        /* \"#utility.yul\":4416:4445   */\n      swap1\n      pop\n        /* \"#utility.yul\":4454:4487   */\n      tag_177\n        /* \"#utility.yul\":4481:4486   */\n      dup2\n        /* \"#utility.yul\":4454:4487   */\n      tag_104\n      jump\t// in\n    tag_177:\n        /* \"#utility.yul\":4354:4493   */\n      swap3\n      swap2\n      pop\n      pop\n      jump\t// out\n        /* \"#utility.yul\":4499:4828   */\n    tag_20:\n        /* \"#utility.yul\":4558:4564   */\n      0x00\n        /* \"#utility.yul\":4607:4609   */\n      0x20\n        /* \"#utility.yul\":4595:4604   */\n      dup3\n        /* \"#utility.yul\":4586:4593   */\n      dup5\n        /* \"#utility.yul\":4582:4605   */\n      sub\n        /* \"#utility.yul\":4578:4610   */\n      slt\n        /* \"#utility.yul\":4575:4694   */\n      iszero\n      tag_179\n      jumpi\n        /* \"#utility.yul\":4613:4692   */\n      tag_180\n      tag_88\n      jump\t// in\n    tag_180:\n        /* \"#utility.yul\":4575:4694   */\n    tag_179:\n        /* \"#utility.yul\":4733:4734   */\n      0x00\n        /* \"#utility.yul\":4758:4811   */\n      tag_181\n        /* \"#utility.yul\":4803:4810   */\n      dup5\n        /* \"#utility.yul\":4794:4800   */\n      dup3\n        /* \"#utility.yul\":4783:4792   */\n      dup6\n        /* \"#utility.yul\":4779:4801   */\n      add\n        /* \"#utility.yul\":4758:4811   */\n      tag_105\n      jump\t// in\n    tag_181:\n        /* \"#utility.yul\":4748:4811   */\n      swap2\n      pop\n        /* \"#utility.yul\":4704:4821   */\n      pop\n        /* \"#utility.yul\":4499:4828   */\n      swap3\n      swap2\n      pop\n      pop\n      jump\t// out\n        /* \"#utility.yul\":4834:5163   */\n    tag_25:\n        /* \"#utility.yul\":4893:4899   */\n      0x00\n        /* \"#utility.yul\":4942:4944   */\n      0x20\n        /* \"#utility.yul\":4930:4939   */\n      dup3\n        /* \"#utility.yul\":4921:4928   */\n      dup5\n        /* \"#utility.yul\":4917:4940   */\n      sub\n        /* \"#utility.yul\":4913:4945   */\n      slt\n        /* \"#utility.yul\":4910:5029   */\n      iszero\n      tag_183\n      jumpi\n        /* \"#utility.yul\":4948:5027   */\n      tag_184\n      tag_88\n      jump\t// in\n    tag_184:\n        /* \"#utility.yul\":4910:5029   */\n    tag_183:\n        /* \"#utility.yul\":5068:5069   */\n      0x00\n        /* \"#utility.yul\":5093:5146   */\n      tag_185\n        /* \"#utility.yul\":5138:5145   */\n      dup5\n        /* \"#utility.yul\":5129:5135   */\n      dup3\n        /* \"#utility.yul\":5118:5127   */\n      dup6\n        /* \"#utility.yul\":5114:5136   */\n      add\n        /* \"#utility.yul\":5093:5146   */\n      tag_98\n      jump\t// in\n    tag_185:\n        /* \"#utility.yul\":5083:5146   */\n      swap2\n      pop\n        /* \"#utility.yul\":5039:5156   */\n      pop\n        /* \"#utility.yul\":4834:5163   */\n      swap3\n      swap2\n      pop\n      pop\n      jump\t// out\n        /* \"#utility.yul\":5169:5268   */\n    tag_106:\n        /* \"#utility.yul\":5221:5227   */\n      0x00\n        /* \"#utility.yul\":5255:5260   */\n      dup2\n        /* \"#utility.yul\":5249:5261   */\n      mload\n        /* \"#utility.yul\":5239:5261   */\n      swap1\n      pop\n        /* \"#utility.yul\":5169:5268   */\n      swap2\n      swap1\n      pop\n      jump\t// out\n        /* \"#utility.yul\":5274:5443   */\n    tag_107:\n        /* \"#utility.yul\":5358:5369   */\n      0x00\n        /* \"#utility.yul\":5392:5398   */\n      dup3\n        /* \"#utility.yul\":5387:5390   */\n      dup3\n        /* \"#utility.yul\":5380:5399   */\n      mstore\n        /* \"#utility.yul\":5432:5436   */\n      0x20\n        /* \"#utility.yul\":5427:5430   */\n      dup3\n        /* \"#utility.yul\":5423:5437   */\n      add\n        /* \"#utility.yul\":5408:5437   */\n      swap1\n      pop\n        /* \"#utility.yul\":5274:5443   */\n      swap3\n      swap2\n      pop\n      pop\n      jump\t// out\n        /* \"#utility.yul\":5449:5588   */\n    tag_108:\n        /* \"#utility.yul\":5538:5544   */\n      dup3\n        /* \"#utility.yul\":5533:5536   */\n      dup2\n        /* \"#utility.yul\":5528:5531   */\n      dup4\n        /* \"#utility.yul\":5522:5545   */\n      mcopy\n        /* \"#utility.yul\":5579:5580   */\n      0x00\n        /* \"#utility.yul\":5570:5576   */\n      dup4\n        /* \"#utility.yul\":5565:5568   */\n      dup4\n        /* \"#utility.yul\":5561:5577   */\n      add\n        /* \"#utility.yul\":5554:5581   */\n      mstore\n        /* \"#utility.yul\":5449:5588   */\n      pop\n      pop\n      pop\n      jump\t// out\n        /* \"#utility.yul\":5594:5971   */\n    tag_109:\n        /* \"#utility.yul\":5682:5685   */\n      0x00\n        /* \"#utility.yul\":5710:5749   */\n      tag_190\n        /* \"#utility.yul\":5743:5748   */\n      dup3\n        /* \"#utility.yul\":5710:5749   */\n      tag_106\n      jump\t// in\n    tag_190:\n        /* \"#utility.yul\":5765:5836   */\n      tag_191\n        /* \"#utility.yul\":5829:5835   */\n      dup2\n        /* \"#utility.yul\":5824:5827   */\n      dup6\n        /* \"#utility.yul\":5765:5836   */\n      tag_107\n      jump\t// in\n    tag_191:\n        /* \"#utility.yul\":5758:5836   */\n      swap4\n      pop\n        /* \"#utility.yul\":5845:5910   */\n      tag_192\n        /* \"#utility.yul\":5903:5909   */\n      dup2\n        /* \"#utility.yul\":5898:5901   */\n      dup6\n        /* \"#utility.yul\":5891:5895   */\n      0x20\n        /* \"#utility.yul\":5884:5889   */\n      dup7\n        /* \"#utility.yul\":5880:5896   */\n      add\n        /* \"#utility.yul\":5845:5910   */\n      tag_108\n      jump\t// in\n    tag_192:\n        /* \"#utility.yul\":5935:5964   */\n      tag_193\n        /* \"#utility.yul\":5957:5963   */\n      dup2\n        /* \"#utility.yul\":5935:5964   */\n      tag_91\n      jump\t// in\n    tag_193:\n        /* \"#utility.yul\":5930:5933   */\n      dup5\n        /* \"#utility.yul\":5926:5965   */\n      add\n        /* \"#utility.yul\":5919:5965   */\n      swap2\n      pop\n        /* \"#utility.yul\":5686:5971   */\n      pop\n        /* \"#utility.yul\":5594:5971   */\n      swap3\n      swap2\n      pop\n      pop\n      jump\t// out\n        /* \"#utility.yul\":5977:6290   */\n    tag_28:\n        /* \"#utility.yul\":6090:6094   */\n      0x00\n        /* \"#utility.yul\":6128:6130   */\n      0x20\n        /* \"#utility.yul\":6117:6126   */\n      dup3\n        /* \"#utility.yul\":6113:6131   */\n      add\n        /* \"#utility.yul\":6105:6131   */\n      swap1\n      pop\n        /* \"#utility.yul\":6177:6186   */\n      dup2\n        /* \"#utility.yul\":6171:6175   */\n      dup2\n        /* \"#utility.yul\":6167:6187   */\n      sub\n        /* \"#utility.yul\":6163:6164   */\n      0x00\n        /* \"#utility.yul\":6152:6161   */\n      dup4\n        /* \"#utility.yul\":6148:6165   */\n      add\n        /* \"#utility.yul\":6141:6188   */\n      mstore\n        /* \"#utility.yul\":6205:6283   */\n      tag_195\n        /* \"#utility.yul\":6278:6282   */\n      dup2\n        /* \"#utility.yul\":6269:6275   */\n      dup5\n        /* \"#utility.yul\":6205:6283   */\n      tag_109\n      jump\t// in\n    tag_195:\n        /* \"#utility.yul\":6197:6283   */\n      swap1\n      pop\n        /* \"#utility.yul\":5977:6290   */\n      swap3\n      swap2\n      pop\n      pop\n      jump\t// out\n        /* \"#utility.yul\":6296:6410   */\n    tag_110:\n        /* \"#utility.yul\":6363:6369   */\n      0x00\n        /* \"#utility.yul\":6397:6402   */\n      dup2\n        /* \"#utility.yul\":6391:6403   */\n      mload\n        /* \"#utility.yul\":6381:6403   */\n      swap1\n      pop\n        /* \"#utility.yul\":6296:6410   */\n      swap2\n      swap1\n      pop\n      jump\t// out\n        /* \"#utility.yul\":6416:6600   */\n    tag_111:\n        /* \"#utility.yul\":6515:6526   */\n      0x00\n        /* \"#utility.yul\":6549:6555   */\n      dup3\n        /* \"#utility.yul\":6544:6547   */\n      dup3\n        /* \"#utility.yul\":6537:6556   */\n      mstore\n        /* \"#utility.yul\":6589:6593   */\n      0x20\n        /* \"#utility.yul\":6584:6587   */\n      dup3\n        /* \"#utility.yul\":6580:6594   */\n      add\n        /* \"#utility.yul\":6565:6594   */\n      swap1\n      pop\n        /* \"#utility.yul\":6416:6600   */\n      swap3\n      swap2\n      pop\n      pop\n      jump\t// out\n        /* \"#utility.yul\":6606:6738   */\n    tag_112:\n        /* \"#utility.yul\":6673:6677   */\n      0x00\n        /* \"#utility.yul\":6696:6699   */\n      dup2\n        /* \"#utility.yul\":6688:6699   */\n      swap1\n      pop\n        /* \"#utility.yul\":6726:6730   */\n      0x20\n        /* \"#utility.yul\":6721:6724   */\n      dup3\n        /* \"#utility.yul\":6717:6731   */\n      add\n        /* \"#utility.yul\":6709:6731   */\n      swap1\n      pop\n        /* \"#utility.yul\":6606:6738   */\n      swap2\n      swap1\n      pop\n      jump\t// out\n        /* \"#utility.yul\":6744:6852   */\n    tag_113:\n        /* \"#utility.yul\":6821:6845   */\n      tag_200\n        /* \"#utility.yul\":6839:6844   */\n      dup2\n        /* \"#utility.yul\":6821:6845   */\n      tag_96\n      jump\t// in\n    tag_200:\n        /* \"#utility.yul\":6816:6819   */\n      dup3\n        /* \"#utility.yul\":6809:6846   */\n      mstore\n        /* \"#utility.yul\":6744:6852   */\n      pop\n      pop\n      jump\t// out\n        /* \"#utility.yul\":6858:7037   */\n    tag_114:\n        /* \"#utility.yul\":6927:6937   */\n      0x00\n        /* \"#utility.yul\":6948:6994   */\n      tag_202\n        /* \"#utility.yul\":6990:6993   */\n      dup4\n        /* \"#utility.yul\":6982:6988   */\n      dup4\n        /* \"#utility.yul\":6948:6994   */\n      tag_113\n      jump\t// in\n    tag_202:\n        /* \"#utility.yul\":7026:7030   */\n      0x20\n        /* \"#utility.yul\":7021:7024   */\n      dup4\n        /* \"#utility.yul\":7017:7031   */\n      add\n        /* \"#utility.yul\":7003:7031   */\n      swap1\n      pop\n        /* \"#utility.yul\":6858:7037   */\n      swap3\n      swap2\n      pop\n      pop\n      jump\t// out\n        /* \"#utility.yul\":7043:7156   */\n    tag_115:\n        /* \"#utility.yul\":7113:7117   */\n      0x00\n        /* \"#utility.yul\":7145:7149   */\n      0x20\n        /* \"#utility.yul\":7140:7143   */\n      dup3\n        /* \"#utility.yul\":7136:7150   */\n      add\n        /* \"#utility.yul\":7128:7150   */\n      swap1\n      pop\n        /* \"#utility.yul\":7043:7156   */\n      swap2\n      swap1\n      pop\n      jump\t// out\n        /* \"#utility.yul\":7192:7924   */\n    tag_116:\n        /* \"#utility.yul\":7311:7314   */\n      0x00\n        /* \"#utility.yul\":7340:7394   */\n      tag_205\n        /* \"#utility.yul\":7388:7393   */\n      dup3\n        /* \"#utility.yul\":7340:7394   */\n      tag_110\n      jump\t// in\n    tag_205:\n        /* \"#utility.yul\":7410:7496   */\n      tag_206\n        /* \"#utility.yul\":7489:7495   */\n      dup2\n        /* \"#utility.yul\":7484:7487   */\n      dup6\n        /* \"#utility.yul\":7410:7496   */\n      tag_111\n      jump\t// in\n    tag_206:\n        /* \"#utility.yul\":7403:7496   */\n      swap4\n      pop\n        /* \"#utility.yul\":7520:7576   */\n      tag_207\n        /* \"#utility.yul\":7570:7575   */\n      dup4\n        /* \"#utility.yul\":7520:7576   */\n      tag_112\n      jump\t// in\n    tag_207:\n        /* \"#utility.yul\":7599:7606   */\n      dup1\n        /* \"#utility.yul\":7630:7631   */\n      0x00\n        /* \"#utility.yul\":7615:7899   */\n    tag_208:\n        /* \"#utility.yul\":7640:7646   */\n      dup4\n        /* \"#utility.yul\":7637:7638   */\n      dup2\n        /* \"#utility.yul\":7634:7647   */\n      lt\n        /* \"#utility.yul\":7615:7899   */\n      iszero\n      tag_210\n      jumpi\n        /* \"#utility.yul\":7716:7722   */\n      dup2\n        /* \"#utility.yul\":7710:7723   */\n      mload\n        /* \"#utility.yul\":7743:7806   */\n      tag_211\n        /* \"#utility.yul\":7802:7805   */\n      dup9\n        /* \"#utility.yul\":7787:7800   */\n      dup3\n        /* \"#utility.yul\":7743:7806   */\n      tag_114\n      jump\t// in\n    tag_211:\n        /* \"#utility.yul\":7736:7806   */\n      swap8\n      pop\n        /* \"#utility.yul\":7829:7889   */\n      tag_212\n        /* \"#utility.yul\":7882:7888   */\n      dup4\n        /* \"#utility.yul\":7829:7889   */\n      tag_115\n      jump\t// in\n    tag_212:\n        /* \"#utility.yul\":7819:7889   */\n      swap3\n      pop\n        /* \"#utility.yul\":7675:7899   */\n      pop\n        /* \"#utility.yul\":7662:7663   */\n      0x01\n        /* \"#utility.yul\":7659:7660   */\n      dup2\n        /* \"#utility.yul\":7655:7664   */\n      add\n        /* \"#utility.yul\":7650:7664   */\n      swap1\n      pop\n        /* \"#utility.yul\":7615:7899   */\n      jump(tag_208)\n    tag_210:\n        /* \"#utility.yul\":7619:7633   */\n      pop\n        /* \"#utility.yul\":7915:7918   */\n      dup6\n        /* \"#utility.yul\":7908:7918   */\n      swap4\n      pop\n        /* \"#utility.yul\":7316:7924   */\n      pop\n      pop\n      pop\n        /* \"#utility.yul\":7192:7924   */\n      swap3\n      swap2\n      pop\n      pop\n      jump\t// out\n        /* \"#utility.yul\":7930:8303   */\n    tag_32:\n        /* \"#utility.yul\":8073:8077   */\n      0x00\n        /* \"#utility.yul\":8111:8113   */\n      0x20\n        /* \"#utility.yul\":8100:8109   */\n      dup3\n        /* \"#utility.yul\":8096:8114   */\n      add\n        /* \"#utility.yul\":8088:8114   */\n      swap1\n      pop\n        /* \"#utility.yul\":8160:8169   */\n      dup2\n        /* \"#utility.yul\":8154:8158   */\n      dup2\n        /* \"#utility.yul\":8150:8170   */\n      sub\n        /* \"#utility.yul\":8146:8147   */\n      0x00\n        /* \"#utility.yul\":8135:8144   */\n      dup4\n        /* \"#utility.yul\":8131:8148   */\n      add\n        /* \"#utility.yul\":8124:8171   */\n      mstore\n        /* \"#utility.yul\":8188:8296   */\n      tag_214\n        /* \"#utility.yul\":8291:8295   */\n      dup2\n        /* \"#utility.yul\":8282:8288   */\n      dup5\n        /* \"#utility.yul\":8188:8296   */\n      tag_116\n      jump\t// in\n    tag_214:\n        /* \"#utility.yul\":8180:8296   */\n      swap1\n      pop\n        /* \"#utility.yul\":7930:8303   */\n      swap3\n      swap2\n      pop\n      pop\n      jump\t// out\n        /* \"#utility.yul\":8309:8413   */\n    tag_117:\n        /* \"#utility.yul\":8374:8380   */\n      0x00\n        /* \"#utility.yul\":8402:8406   */\n      0x04\n        /* \"#utility.yul\":8392:8406   */\n      swap1\n      pop\n        /* \"#utility.yul\":8309:8413   */\n      swap2\n      swap1\n      pop\n      jump\t// out\n        /* \"#utility.yul\":8419:8562   */\n    tag_118:\n        /* \"#utility.yul\":8516:8527   */\n      0x00\n        /* \"#utility.yul\":8553:8556   */\n      dup2\n        /* \"#utility.yul\":8538:8556   */\n      swap1\n      pop\n        /* \"#utility.yul\":8419:8562   */\n      swap3\n      swap2\n      pop\n      pop\n      jump\t// out\n        /* \"#utility.yul\":8568:8666   */\n    tag_119:\n        /* \"#utility.yul\":8633:8637   */\n      0x00\n        /* \"#utility.yul\":8656:8659   */\n      dup2\n        /* \"#utility.yul\":8648:8659   */\n      swap1\n      pop\n        /* \"#utility.yul\":8568:8666   */\n      swap2\n      swap1\n      pop\n      jump\t// out\n        /* \"#utility.yul\":8672:8783   */\n    tag_120:\n        /* \"#utility.yul\":8740:8744   */\n      0x00\n        /* \"#utility.yul\":8772:8776   */\n      0x20\n        /* \"#utility.yul\":8767:8770   */\n      dup3\n        /* \"#utility.yul\":8763:8777   */\n      add\n        /* \"#utility.yul\":8755:8777   */\n      swap1\n      pop\n        /* \"#utility.yul\":8672:8783   */\n      swap2\n      swap1\n      pop\n      jump\t// out\n        /* \"#utility.yul\":8821:9515   */\n    tag_121:\n        /* \"#utility.yul\":8957:9009   */\n      tag_220\n        /* \"#utility.yul\":9003:9008   */\n      dup2\n        /* \"#utility.yul\":8957:9009   */\n      tag_117\n      jump\t// in\n    tag_220:\n        /* \"#utility.yul\":9025:9109   */\n      tag_221\n        /* \"#utility.yul\":9102:9108   */\n      dup2\n        /* \"#utility.yul\":9097:9100   */\n      dup5\n        /* \"#utility.yul\":9025:9109   */\n      tag_118\n      jump\t// in\n    tag_221:\n        /* \"#utility.yul\":9018:9109   */\n      swap3\n      pop\n        /* \"#utility.yul\":9133:9187   */\n      tag_222\n        /* \"#utility.yul\":9181:9186   */\n      dup3\n        /* \"#utility.yul\":9133:9187   */\n      tag_119\n      jump\t// in\n    tag_222:\n        /* \"#utility.yul\":9210:9217   */\n      dup1\n        /* \"#utility.yul\":9241:9242   */\n      0x00\n        /* \"#utility.yul\":9226:9508   */\n    tag_223:\n        /* \"#utility.yul\":9251:9257   */\n      dup4\n        /* \"#utility.yul\":9248:9249   */\n      dup2\n        /* \"#utility.yul\":9245:9258   */\n      lt\n        /* \"#utility.yul\":9226:9508   */\n      iszero\n      tag_225\n      jumpi\n        /* \"#utility.yul\":9327:9333   */\n      dup2\n        /* \"#utility.yul\":9321:9334   */\n      mload\n        /* \"#utility.yul\":9354:9417   */\n      tag_226\n        /* \"#utility.yul\":9413:9416   */\n      dup8\n        /* \"#utility.yul\":9398:9411   */\n      dup3\n        /* \"#utility.yul\":9354:9417   */\n      tag_114\n      jump\t// in\n    tag_226:\n        /* \"#utility.yul\":9347:9417   */\n      swap7\n      pop\n        /* \"#utility.yul\":9440:9498   */\n      tag_227\n        /* \"#utility.yul\":9491:9497   */\n      dup4\n        /* \"#utility.yul\":9440:9498   */\n      tag_120\n      jump\t// in\n    tag_227:\n        /* \"#utility.yul\":9430:9498   */\n      swap3\n      pop\n        /* \"#utility.yul\":9286:9508   */\n      pop\n        /* \"#utility.yul\":9273:9274   */\n      0x01\n        /* \"#utility.yul\":9270:9271   */\n      dup2\n        /* \"#utility.yul\":9266:9275   */\n      add\n        /* \"#utility.yul\":9261:9275   */\n      swap1\n      pop\n        /* \"#utility.yul\":9226:9508   */\n      jump(tag_223)\n    tag_225:\n        /* \"#utility.yul\":9230:9244   */\n      pop\n        /* \"#utility.yul\":8933:9515   */\n      pop\n      pop\n      pop\n        /* \"#utility.yul\":8821:9515   */\n      pop\n      pop\n      jump\t// out\n        /* \"#utility.yul\":9521:9836   */\n    tag_36:\n        /* \"#utility.yul\":9660:9664   */\n      0x00\n        /* \"#utility.yul\":9698:9701   */\n      0x80\n        /* \"#utility.yul\":9687:9696   */\n      dup3\n        /* \"#utility.yul\":9683:9702   */\n      add\n        /* \"#utility.yul\":9675:9702   */\n      swap1\n      pop\n        /* \"#utility.yul\":9712:9829   */\n      tag_229\n        /* \"#utility.yul\":9826:9827   */\n      0x00\n        /* \"#utility.yul\":9815:9824   */\n      dup4\n        /* \"#utility.yul\":9811:9828   */\n      add\n        /* \"#utility.yul\":9802:9808   */\n      dup5\n        /* \"#utility.yul\":9712:9829   */\n      tag_121\n      jump\t// in\n    tag_229:\n        /* \"#utility.yul\":9521:9836   */\n      swap3\n      swap2\n      pop\n      pop\n      jump\t// out\n        /* \"#utility.yul\":9842:10022   */\n    tag_53:\n        /* \"#utility.yul\":9890:9967   */\n      0x4e487b7100000000000000000000000000000000000000000000000000000000\n        /* \"#utility.yul\":9887:9888   */\n      0x00\n        /* \"#utility.yul\":9880:9968   */\n      mstore\n        /* \"#utility.yul\":9987:9991   */\n      0x32\n        /* \"#utility.yul\":9984:9985   */\n      0x04\n        /* \"#utility.yul\":9977:9992   */\n      mstore\n        /* \"#utility.yul\":10011:10015   */\n      0x24\n        /* \"#utility.yul\":10008:10009   */\n      0x00\n        /* \"#utility.yul\":10001:10016   */\n      revert\n        /* \"#utility.yul\":10028:10208   */\n    tag_122:\n        /* \"#utility.yul\":10076:10153   */\n      0x4e487b7100000000000000000000000000000000000000000000000000000000\n        /* \"#utility.yul\":10073:10074   */\n      0x00\n        /* \"#utility.yul\":10066:10154   */\n      mstore\n        /* \"#utility.yul\":10173:10177   */\n      0x11\n        /* \"#utility.yul\":10170:10171   */\n      0x04\n        /* \"#utility.yul\":10163:10178   */\n      mstore\n        /* \"#utility.yul\":10197:10201   */\n      0x24\n        /* \"#utility.yul\":10194:10195   */\n      0x00\n        /* \"#utility.yul\":10187:10202   */\n      revert\n        /* \"#utility.yul\":10214:10405   */\n    tag_55:\n        /* \"#utility.yul\":10254:10257   */\n      0x00\n        /* \"#utility.yul\":10273:10293   */\n      tag_233\n        /* \"#utility.yul\":10291:10292   */\n      dup3\n        /* \"#utility.yul\":10273:10293   */\n      tag_96\n      jump\t// in\n    tag_233:\n        /* \"#utility.yul\":10268:10293   */\n      swap2\n      pop\n        /* \"#utility.yul\":10307:10327   */\n      tag_234\n        /* \"#utility.yul\":10325:10326   */\n      dup4\n        /* \"#utility.yul\":10307:10327   */\n      tag_96\n      jump\t// in\n    tag_234:\n        /* \"#utility.yul\":10302:10327   */\n      swap3\n      pop\n        /* \"#utility.yul\":10350:10351   */\n      dup3\n        /* \"#utility.yul\":10347:10348   */\n      dup3\n        /* \"#utility.yul\":10343:10352   */\n      add\n        /* \"#utility.yul\":10336:10352   */\n      swap1\n      pop\n        /* \"#utility.yul\":10371:10374   */\n      dup1\n        /* \"#utility.yul\":10368:10369   */\n      dup3\n        /* \"#utility.yul\":10365:10375   */\n      gt\n        /* \"#utility.yul\":10362:10398   */\n      iszero\n      tag_235\n      jumpi\n        /* \"#utility.yul\":10378:10396   */\n      tag_236\n      tag_122\n      jump\t// in\n    tag_236:\n        /* \"#utility.yul\":10362:10398   */\n    tag_235:\n        /* \"#utility.yul\":10214:10405   */\n      swap3\n      swap2\n      pop\n      pop\n      jump\t// out\n        /* \"#utility.yul\":10411:10644   */\n    tag_84:\n        /* \"#utility.yul\":10450:10453   */\n      0x00\n        /* \"#utility.yul\":10473:10497   */\n      tag_238\n        /* \"#utility.yul\":10491:10496   */\n      dup3\n        /* \"#utility.yul\":10473:10497   */\n      tag_96\n      jump\t// in\n    tag_238:\n        /* \"#utility.yul\":10464:10497   */\n      swap2\n      pop\n        /* \"#utility.yul\":10519:10585   */\n      0xffffffffffffffffffffffffffffffffffffffffffffffffffffffffffffffff\n        /* \"#utility.yul\":10512:10517   */\n      dup3\n        /* \"#utility.yul\":10509:10586   */\n      sub\n        /* \"#utility.yul\":10506:10609   */\n      tag_239\n      jumpi\n        /* \"#utility.yul\":10589:10607   */\n      tag_240\n      tag_122\n      jump\t// in\n    tag_240:\n        /* \"#utility.yul\":10506:10609   */\n    tag_239:\n        /* \"#utility.yul\":10636:10637   */\n      0x01\n        /* \"#utility.yul\":10629:10634   */\n      dup3\n        /* \"#utility.yul\":10625:10638   */\n      add\n        /* \"#utility.yul\":10618:10638   */\n      swap1\n      pop\n        /* \"#utility.yul\":10411:10644   */\n      swap2\n      swap1\n      pop\n      jump\t// out\n\n    auxdata: 0xa2646970667358221220626947aac7b658ba55957ca14f6825931ef2d4076e6c79006a819f3245f24b4364736f6c634300081a0033\n}\n",
				"bytecode": {
					"linkReferences": {},
					"object": "60806040526040518060800160405280600260ff168152602001600460ff168152602001600560ff168152602001600560ff168152505f90600460429291906052565b50348015604d575f80fd5b5060ab565b82600481019282156083579160200282015b828111156082578251829060ff169055916020019190600101906064565b5b509050608e91906092565b5090565b5b8082111560a7575f815f9055506001016093565b5090565b610a7d806100b85f395ff3fe608060405234801561000f575f80fd5b5060043610610086575f3560e01c8063d5ae940911610059578063d5ae940914610138578063d622e22b14610156578063f8b2cb4f14610174578063fb1669ca146101a457610086565b80631e2aea061461008a57806327e235e3146100ba57806351b1cfad146100ea57806399b8390a1461011a575b5f80fd5b6100a4600480360381019061009f9190610665565b6101c0565b6040516100b191906106bb565b60405180910390f35b6100d460048036038101906100cf919061072e565b610210565b6040516100e191906106bb565b60405180910390f35b61010460048036038101906100ff9190610759565b610225565b60405161011191906107e4565b60405180910390f35b6101226102aa565b60405161012f91906108bb565b60405180910390f35b610140610339565b60405161014d919061095a565b60405180910390f35b61015e610383565b60405161016b91906108bb565b60405180910390f35b61018e6004803603810190610189919061072e565b610424565b60405161019b91906106bb565b60405180910390f35b6101be60048036038101906101b99190610759565b61046a565b005b5f805f90505f5b835181101561020657836001815181106101e4576101e3610973565b5b6020026020010151826101f791906109cd565b915080806001019150506101c7565b5080915050919050565b6004602052805f5260405f205f915090505481565b60606012821061026c576040518060400160405280600981526020017f796f75206265204f47000000000000000000000000000000000000000000000081525090506102a5565b6040518060400160405280600f81526020017f796f7520626520756e646572616765000000000000000000000000000000000081525090505b919050565b60605f606467ffffffffffffffff8111156102c8576102c76104f6565b5b6040519080825280602002602001820160405280156102f65781602001602082028036833780820191505090505b5090505f5b8151811015610331578082828151811061031857610317610973565b5b60200260200101818152505080806001019150506102fb565b508091505090565b6103416104af565b5f600480602002604051908101604052809291908260048015610379576020028201915b815481526020019060010190808311610365575b5050505050905090565b60605f606467ffffffffffffffff8111156103a1576103a06104f6565b5b6040519080825280602002602001820160405280156103cf5781602001602082028036833780820191505090505b5090505f5b606481101561041c576001816103ea91906109cd565b8282815181106103fd576103fc610973565b5b602002602001018181525050808061041490610a00565b9150506103d4565b819250505090565b5f60045f8373ffffffffffffffffffffffffffffffffffffffff1673ffffffffffffffffffffffffffffffffffffffff1681526020019081526020015f20549050919050565b8060045f3373ffffffffffffffffffffffffffffffffffffffff1673ffffffffffffffffffffffffffffffffffffffff1681526020019081526020015f208190555050565b6040518060800160405280600490602082028036833780820191505090505090565b5f604051905090565b5f80fd5b5f80fd5b5f80fd5b5f601f19601f8301169050919050565b7f4e487b71000000000000000000000000000000000000000000000000000000005f52604160045260245ffd5b61052c826104e6565b810181811067ffffffffffffffff8211171561054b5761054a6104f6565b5b80604052505050565b5f61055d6104d1565b90506105698282610523565b919050565b5f67ffffffffffffffff821115610588576105876104f6565b5b602082029050602081019050919050565b5f80fd5b5f819050919050565b6105af8161059d565b81146105b9575f80fd5b50565b5f813590506105ca816105a6565b92915050565b5f6105e26105dd8461056e565b610554565b9050808382526020820190506020840283018581111561060557610604610599565b5b835b8181101561062e578061061a88826105bc565b845260208401935050602081019050610607565b5050509392505050565b5f82601f83011261064c5761064b6104e2565b5b813561065c8482602086016105d0565b91505092915050565b5f6020828403121561067a576106796104da565b5b5f82013567ffffffffffffffff811115610697576106966104de565b5b6106a384828501610638565b91505092915050565b6106b58161059d565b82525050565b5f6020820190506106ce5f8301846106ac565b92915050565b5f73ffffffffffffffffffffffffffffffffffffffff82169050919050565b5f6106fd826106d4565b9050919050565b61070d816106f3565b8114610717575f80fd5b50565b5f8135905061072881610704565b92915050565b5f60208284031215610743576107426104da565b5b5f6107508482850161071a565b91505092915050565b5f6020828403121561076e5761076d6104da565b5b5f61077b848285016105bc565b91505092915050565b5f81519050919050565b5f82825260208201905092915050565b8281835e5f83830152505050565b5f6107b682610784565b6107c0818561078e565b93506107d081856020860161079e565b6107d9816104e6565b840191505092915050565b5f6020820190508181035f8301526107fc81846107ac565b905092915050565b5f81519050919050565b5f82825260208201905092915050565b5f819050602082019050919050565b6108368161059d565b82525050565b5f610847838361082d565b60208301905092915050565b5f602082019050919050565b5f61086982610804565b610873818561080e565b935061087e8361081e565b805f5b838110156108ae578151610895888261083c565b97506108a083610853565b925050600181019050610881565b5085935050505092915050565b5f6020820190508181035f8301526108d3818461085f565b905092915050565b5f60049050919050565b5f81905092915050565b5f819050919050565b5f602082019050919050565b61090d816108db565b61091781846108e5565b9250610922826108ef565b805f5b83811015610952578151610939878261083c565b9650610944836108f8565b925050600181019050610925565b505050505050565b5f60808201905061096d5f830184610904565b92915050565b7f4e487b71000000000000000000000000000000000000000000000000000000005f52603260045260245ffd5b7f4e487b71000000000000000000000000000000000000000000000000000000005f52601160045260245ffd5b5f6109d78261059d565b91506109e28361059d565b92508282019050808211156109fa576109f96109a0565b5b92915050565b5f610a0a8261059d565b91507fffffffffffffffffffffffffffffffffffffffffffffffffffffffffffffffff8203610a3c57610a3b6109a0565b5b60018201905091905056fea2646970667358221220626947aac7b658ba55957ca14f6825931ef2d4076e6c79006a819f3245f24b4364736f6c634300081a0033",
					"opcodes": "PUSH1 0x80 PUSH1 0x40 MSTORE PUSH1 0x40 MLOAD DUP1 PUSH1 0x80 ADD PUSH1 0x40 MSTORE DUP1 PUSH1 0x2 PUSH1 0xFF AND DUP2 MSTORE PUSH1 0x20 ADD PUSH1 0x4 PUSH1 0xFF AND DUP2 MSTORE PUSH1 0x20 ADD PUSH1 0x5 PUSH1 0xFF AND DUP2 MSTORE PUSH1 0x20 ADD PUSH1 0x5 PUSH1 0xFF AND DUP2 MSTORE POP PUSH0 SWAP1 PUSH1 0x4 PUSH1 0x42 SWAP3 SWAP2 SWAP1 PUSH1 0x52 JUMP JUMPDEST POP CALLVALUE DUP1 ISZERO PUSH1 0x4D JUMPI PUSH0 DUP1 REVERT JUMPDEST POP PUSH1 0xAB JUMP JUMPDEST DUP3 PUSH1 0x4 DUP2 ADD SWAP3 DUP3 ISZERO PUSH1 0x83 JUMPI SWAP2 PUSH1 0x20 MUL DUP3 ADD JUMPDEST DUP3 DUP2 GT ISZERO PUSH1 0x82 JUMPI DUP3 MLOAD DUP3 SWAP1 PUSH1 0xFF AND SWAP1 SSTORE SWAP2 PUSH1 0x20 ADD SWAP2 SWAP1 PUSH1 0x1 ADD SWAP1 PUSH1 0x64 JUMP JUMPDEST JUMPDEST POP SWAP1 POP PUSH1 0x8E SWAP2 SWAP1 PUSH1 0x92 JUMP JUMPDEST POP SWAP1 JUMP JUMPDEST JUMPDEST DUP1 DUP3 GT ISZERO PUSH1 0xA7 JUMPI PUSH0 DUP2 PUSH0 SWAP1 SSTORE POP PUSH1 0x1 ADD PUSH1 0x93 JUMP JUMPDEST POP SWAP1 JUMP JUMPDEST PUSH2 0xA7D DUP1 PUSH2 0xB8 PUSH0 CODECOPY PUSH0 RETURN INVALID PUSH1 0x80 PUSH1 0x40 MSTORE CALLVALUE DUP1 ISZERO PUSH2 0xF JUMPI PUSH0 DUP1 REVERT JUMPDEST POP PUSH1 0x4 CALLDATASIZE LT PUSH2 0x86 JUMPI PUSH0 CALLDATALOAD PUSH1 0xE0 SHR DUP1 PUSH4 0xD5AE9409 GT PUSH2 0x59 JUMPI DUP1 PUSH4 0xD5AE9409 EQ PUSH2 0x138 JUMPI DUP1 PUSH4 0xD622E22B EQ PUSH2 0x156 JUMPI DUP1 PUSH4 0xF8B2CB4F EQ PUSH2 0x174 JUMPI DUP1 PUSH4 0xFB1669CA EQ PUSH2 0x1A4 JUMPI PUSH2 0x86 JUMP JUMPDEST DUP1 PUSH4 0x1E2AEA06 EQ PUSH2 0x8A JUMPI DUP1 PUSH4 0x27E235E3 EQ PUSH2 0xBA JUMPI DUP1 PUSH4 0x51B1CFAD EQ PUSH2 0xEA JUMPI DUP1 PUSH4 0x99B8390A EQ PUSH2 0x11A JUMPI JUMPDEST PUSH0 DUP1 REVERT JUMPDEST PUSH2 0xA4 PUSH1 0x4 DUP1 CALLDATASIZE SUB DUP2 ADD SWAP1 PUSH2 0x9F SWAP2 SWAP1 PUSH2 0x665 JUMP JUMPDEST PUSH2 0x1C0 JUMP JUMPDEST PUSH1 0x40 MLOAD PUSH2 0xB1 SWAP2 SWAP1 PUSH2 0x6BB JUMP JUMPDEST PUSH1 0x40 MLOAD DUP1 SWAP2 SUB SWAP1 RETURN JUMPDEST PUSH2 0xD4 PUSH1 0x4 DUP1 CALLDATASIZE SUB DUP2 ADD SWAP1 PUSH2 0xCF SWAP2 SWAP1 PUSH2 0x72E JUMP JUMPDEST PUSH2 0x210 JUMP JUMPDEST PUSH1 0x40 MLOAD PUSH2 0xE1 SWAP2 SWAP1 PUSH2 0x6BB JUMP JUMPDEST PUSH1 0x40 MLOAD DUP1 SWAP2 SUB SWAP1 RETURN JUMPDEST PUSH2 0x104 PUSH1 0x4 DUP1 CALLDATASIZE SUB DUP2 ADD SWAP1 PUSH2 0xFF SWAP2 SWAP1 PUSH2 0x759 JUMP JUMPDEST PUSH2 0x225 JUMP JUMPDEST PUSH1 0x40 MLOAD PUSH2 0x111 SWAP2 SWAP1 PUSH2 0x7E4 JUMP JUMPDEST PUSH1 0x40 MLOAD DUP1 SWAP2 SUB SWAP1 RETURN JUMPDEST PUSH2 0x122 PUSH2 0x2AA JUMP JUMPDEST PUSH1 0x40 MLOAD PUSH2 0x12F SWAP2 SWAP1 PUSH2 0x8BB JUMP JUMPDEST PUSH1 0x40 MLOAD DUP1 SWAP2 SUB SWAP1 RETURN JUMPDEST PUSH2 0x140 PUSH2 0x339 JUMP JUMPDEST PUSH1 0x40 MLOAD PUSH2 0x14D SWAP2 SWAP1 PUSH2 0x95A JUMP JUMPDEST PUSH1 0x40 MLOAD DUP1 SWAP2 SUB SWAP1 RETURN JUMPDEST PUSH2 0x15E PUSH2 0x383 JUMP JUMPDEST PUSH1 0x40 MLOAD PUSH2 0x16B SWAP2 SWAP1 PUSH2 0x8BB JUMP JUMPDEST PUSH1 0x40 MLOAD DUP1 SWAP2 SUB SWAP1 RETURN JUMPDEST PUSH2 0x18E PUSH1 0x4 DUP1 CALLDATASIZE SUB DUP2 ADD SWAP1 PUSH2 0x189 SWAP2 SWAP1 PUSH2 0x72E JUMP JUMPDEST PUSH2 0x424 JUMP JUMPDEST PUSH1 0x40 MLOAD PUSH2 0x19B SWAP2 SWAP1 PUSH2 0x6BB JUMP JUMPDEST PUSH1 0x40 MLOAD DUP1 SWAP2 SUB SWAP1 RETURN JUMPDEST PUSH2 0x1BE PUSH1 0x4 DUP1 CALLDATASIZE SUB DUP2 ADD SWAP1 PUSH2 0x1B9 SWAP2 SWAP1 PUSH2 0x759 JUMP JUMPDEST PUSH2 0x46A JUMP JUMPDEST STOP JUMPDEST PUSH0 DUP1 PUSH0 SWAP1 POP PUSH0 JUMPDEST DUP4 MLOAD DUP2 LT ISZERO PUSH2 0x206 JUMPI DUP4 PUSH1 0x1 DUP2 MLOAD DUP2 LT PUSH2 0x1E4 JUMPI PUSH2 0x1E3 PUSH2 0x973 JUMP JUMPDEST JUMPDEST PUSH1 0x20 MUL PUSH1 0x20 ADD ADD MLOAD DUP3 PUSH2 0x1F7 SWAP2 SWAP1 PUSH2 0x9CD JUMP JUMPDEST SWAP2 POP DUP1 DUP1 PUSH1 0x1 ADD SWAP2 POP POP PUSH2 0x1C7 JUMP JUMPDEST POP DUP1 SWAP2 POP POP SWAP2 SWAP1 POP JUMP JUMPDEST PUSH1 0x4 PUSH1 0x20 MSTORE DUP1 PUSH0 MSTORE PUSH1 0x40 PUSH0 KECCAK256 PUSH0 SWAP2 POP SWAP1 POP SLOAD DUP2 JUMP JUMPDEST PUSH1 0x60 PUSH1 0x12 DUP3 LT PUSH2 0x26C JUMPI PUSH1 0x40 MLOAD DUP1 PUSH1 0x40 ADD PUSH1 0x40 MSTORE DUP1 PUSH1 0x9 DUP2 MSTORE PUSH1 0x20 ADD PUSH32 0x796F75206265204F470000000000000000000000000000000000000000000000 DUP2 MSTORE POP SWAP1 POP PUSH2 0x2A5 JUMP JUMPDEST PUSH1 0x40 MLOAD DUP1 PUSH1 0x40 ADD PUSH1 0x40 MSTORE DUP1 PUSH1 0xF DUP2 MSTORE PUSH1 0x20 ADD PUSH32 0x796F7520626520756E6465726167650000000000000000000000000000000000 DUP2 MSTORE POP SWAP1 POP JUMPDEST SWAP2 SWAP1 POP JUMP JUMPDEST PUSH1 0x60 PUSH0 PUSH1 0x64 PUSH8 0xFFFFFFFFFFFFFFFF DUP2 GT ISZERO PUSH2 0x2C8 JUMPI PUSH2 0x2C7 PUSH2 0x4F6 JUMP JUMPDEST JUMPDEST PUSH1 0x40 MLOAD SWAP1 DUP1 DUP3 MSTORE DUP1 PUSH1 0x20 MUL PUSH1 0x20 ADD DUP3 ADD PUSH1 0x40 MSTORE DUP1 ISZERO PUSH2 0x2F6 JUMPI DUP2 PUSH1 0x20 ADD PUSH1 0x20 DUP3 MUL DUP1 CALLDATASIZE DUP4 CALLDATACOPY DUP1 DUP3 ADD SWAP2 POP POP SWAP1 POP JUMPDEST POP SWAP1 POP PUSH0 JUMPDEST DUP2 MLOAD DUP2 LT ISZERO PUSH2 0x331 JUMPI DUP1 DUP3 DUP3 DUP2 MLOAD DUP2 LT PUSH2 0x318 JUMPI PUSH2 0x317 PUSH2 0x973 JUMP JUMPDEST JUMPDEST PUSH1 0x20 MUL PUSH1 0x20 ADD ADD DUP2 DUP2 MSTORE POP POP DUP1 DUP1 PUSH1 0x1 ADD SWAP2 POP POP PUSH2 0x2FB JUMP JUMPDEST POP DUP1 SWAP2 POP POP SWAP1 JUMP JUMPDEST PUSH2 0x341 PUSH2 0x4AF JUMP JUMPDEST PUSH0 PUSH1 0x4 DUP1 PUSH1 0x20 MUL PUSH1 0x40 MLOAD SWAP1 DUP2 ADD PUSH1 0x40 MSTORE DUP1 SWAP3 SWAP2 SWAP1 DUP3 PUSH1 0x4 DUP1 ISZERO PUSH2 0x379 JUMPI PUSH1 0x20 MUL DUP3 ADD SWAP2 JUMPDEST DUP2 SLOAD DUP2 MSTORE PUSH1 0x20 ADD SWAP1 PUSH1 0x1 ADD SWAP1 DUP1 DUP4 GT PUSH2 0x365 JUMPI JUMPDEST POP POP POP POP POP SWAP1 POP SWAP1 JUMP JUMPDEST PUSH1 0x60 PUSH0 PUSH1 0x64 PUSH8 0xFFFFFFFFFFFFFFFF DUP2 GT ISZERO PUSH2 0x3A1 JUMPI PUSH2 0x3A0 PUSH2 0x4F6 JUMP JUMPDEST JUMPDEST PUSH1 0x40 MLOAD SWAP1 DUP1 DUP3 MSTORE DUP1 PUSH1 0x20 MUL PUSH1 0x20 ADD DUP3 ADD PUSH1 0x40 MSTORE DUP1 ISZERO PUSH2 0x3CF JUMPI DUP2 PUSH1 0x20 ADD PUSH1 0x20 DUP3 MUL DUP1 CALLDATASIZE DUP4 CALLDATACOPY DUP1 DUP3 ADD SWAP2 POP POP SWAP1 POP JUMPDEST POP SWAP1 POP PUSH0 JUMPDEST PUSH1 0x64 DUP2 LT ISZERO PUSH2 0x41C JUMPI PUSH1 0x1 DUP2 PUSH2 0x3EA SWAP2 SWAP1 PUSH2 0x9CD JUMP JUMPDEST DUP3 DUP3 DUP2 MLOAD DUP2 LT PUSH2 0x3FD JUMPI PUSH2 0x3FC PUSH2 0x973 JUMP JUMPDEST JUMPDEST PUSH1 0x20 MUL PUSH1 0x20 ADD ADD DUP2 DUP2 MSTORE POP POP DUP1 DUP1 PUSH2 0x414 SWAP1 PUSH2 0xA00 JUMP JUMPDEST SWAP2 POP POP PUSH2 0x3D4 JUMP JUMPDEST DUP2 SWAP3 POP POP POP SWAP1 JUMP JUMPDEST PUSH0 PUSH1 0x4 PUSH0 DUP4 PUSH20 0xFFFFFFFFFFFFFFFFFFFFFFFFFFFFFFFFFFFFFFFF AND PUSH20 0xFFFFFFFFFFFFFFFFFFFFFFFFFFFFFFFFFFFFFFFF AND DUP2 MSTORE PUSH1 0x20 ADD SWAP1 DUP2 MSTORE PUSH1 0x20 ADD PUSH0 KECCAK256 SLOAD SWAP1 POP SWAP2 SWAP1 POP JUMP JUMPDEST DUP1 PUSH1 0x4 PUSH0 CALLER PUSH20 0xFFFFFFFFFFFFFFFFFFFFFFFFFFFFFFFFFFFFFFFF AND PUSH20 0xFFFFFFFFFFFFFFFFFFFFFFFFFFFFFFFFFFFFFFFF AND DUP2 MSTORE PUSH1 0x20 ADD SWAP1 DUP2 MSTORE PUSH1 0x20 ADD PUSH0 KECCAK256 DUP2 SWAP1 SSTORE POP POP JUMP JUMPDEST PUSH1 0x40 MLOAD DUP1 PUSH1 0x80 ADD PUSH1 0x40 MSTORE DUP1 PUSH1 0x4 SWAP1 PUSH1 0x20 DUP3 MUL DUP1 CALLDATASIZE DUP4 CALLDATACOPY DUP1 DUP3 ADD SWAP2 POP POP SWAP1 POP POP SWAP1 JUMP JUMPDEST PUSH0 PUSH1 0x40 MLOAD SWAP1 POP SWAP1 JUMP JUMPDEST PUSH0 DUP1 REVERT JUMPDEST PUSH0 DUP1 REVERT JUMPDEST PUSH0 DUP1 REVERT JUMPDEST PUSH0 PUSH1 0x1F NOT PUSH1 0x1F DUP4 ADD AND SWAP1 POP SWAP2 SWAP1 POP JUMP JUMPDEST PUSH32 0x4E487B7100000000000000000000000000000000000000000000000000000000 PUSH0 MSTORE PUSH1 0x41 PUSH1 0x4 MSTORE PUSH1 0x24 PUSH0 REVERT JUMPDEST PUSH2 0x52C DUP3 PUSH2 0x4E6 JUMP JUMPDEST DUP2 ADD DUP2 DUP2 LT PUSH8 0xFFFFFFFFFFFFFFFF DUP3 GT OR ISZERO PUSH2 0x54B JUMPI PUSH2 0x54A PUSH2 0x4F6 JUMP JUMPDEST JUMPDEST DUP1 PUSH1 0x40 MSTORE POP POP POP JUMP JUMPDEST PUSH0 PUSH2 0x55D PUSH2 0x4D1 JUMP JUMPDEST SWAP1 POP PUSH2 0x569 DUP3 DUP3 PUSH2 0x523 JUMP JUMPDEST SWAP2 SWAP1 POP JUMP JUMPDEST PUSH0 PUSH8 0xFFFFFFFFFFFFFFFF DUP3 GT ISZERO PUSH2 0x588 JUMPI PUSH2 0x587 PUSH2 0x4F6 JUMP JUMPDEST JUMPDEST PUSH1 0x20 DUP3 MUL SWAP1 POP PUSH1 0x20 DUP2 ADD SWAP1 POP SWAP2 SWAP1 POP JUMP JUMPDEST PUSH0 DUP1 REVERT JUMPDEST PUSH0 DUP2 SWAP1 POP SWAP2 SWAP1 POP JUMP JUMPDEST PUSH2 0x5AF DUP2 PUSH2 0x59D JUMP JUMPDEST DUP2 EQ PUSH2 0x5B9 JUMPI PUSH0 DUP1 REVERT JUMPDEST POP JUMP JUMPDEST PUSH0 DUP2 CALLDATALOAD SWAP1 POP PUSH2 0x5CA DUP2 PUSH2 0x5A6 JUMP JUMPDEST SWAP3 SWAP2 POP POP JUMP JUMPDEST PUSH0 PUSH2 0x5E2 PUSH2 0x5DD DUP5 PUSH2 0x56E JUMP JUMPDEST PUSH2 0x554 JUMP JUMPDEST SWAP1 POP DUP1 DUP4 DUP3 MSTORE PUSH1 0x20 DUP3 ADD SWAP1 POP PUSH1 0x20 DUP5 MUL DUP4 ADD DUP6 DUP2 GT ISZERO PUSH2 0x605 JUMPI PUSH2 0x604 PUSH2 0x599 JUMP JUMPDEST JUMPDEST DUP4 JUMPDEST DUP2 DUP2 LT ISZERO PUSH2 0x62E JUMPI DUP1 PUSH2 0x61A DUP9 DUP3 PUSH2 0x5BC JUMP JUMPDEST DUP5 MSTORE PUSH1 0x20 DUP5 ADD SWAP4 POP POP PUSH1 0x20 DUP2 ADD SWAP1 POP PUSH2 0x607 JUMP JUMPDEST POP POP POP SWAP4 SWAP3 POP POP POP JUMP JUMPDEST PUSH0 DUP3 PUSH1 0x1F DUP4 ADD SLT PUSH2 0x64C JUMPI PUSH2 0x64B PUSH2 0x4E2 JUMP JUMPDEST JUMPDEST DUP2 CALLDATALOAD PUSH2 0x65C DUP5 DUP3 PUSH1 0x20 DUP7 ADD PUSH2 0x5D0 JUMP JUMPDEST SWAP2 POP POP SWAP3 SWAP2 POP POP JUMP JUMPDEST PUSH0 PUSH1 0x20 DUP3 DUP5 SUB SLT ISZERO PUSH2 0x67A JUMPI PUSH2 0x679 PUSH2 0x4DA JUMP JUMPDEST JUMPDEST PUSH0 DUP3 ADD CALLDATALOAD PUSH8 0xFFFFFFFFFFFFFFFF DUP2 GT ISZERO PUSH2 0x697 JUMPI PUSH2 0x696 PUSH2 0x4DE JUMP JUMPDEST JUMPDEST PUSH2 0x6A3 DUP5 DUP3 DUP6 ADD PUSH2 0x638 JUMP JUMPDEST SWAP2 POP POP SWAP3 SWAP2 POP POP JUMP JUMPDEST PUSH2 0x6B5 DUP2 PUSH2 0x59D JUMP JUMPDEST DUP3 MSTORE POP POP JUMP JUMPDEST PUSH0 PUSH1 0x20 DUP3 ADD SWAP1 POP PUSH2 0x6CE PUSH0 DUP4 ADD DUP5 PUSH2 0x6AC JUMP JUMPDEST SWAP3 SWAP2 POP POP JUMP JUMPDEST PUSH0 PUSH20 0xFFFFFFFFFFFFFFFFFFFFFFFFFFFFFFFFFFFFFFFF DUP3 AND SWAP1 POP SWAP2 SWAP1 POP JUMP JUMPDEST PUSH0 PUSH2 0x6FD DUP3 PUSH2 0x6D4 JUMP JUMPDEST SWAP1 POP SWAP2 SWAP1 POP JUMP JUMPDEST PUSH2 0x70D DUP2 PUSH2 0x6F3 JUMP JUMPDEST DUP2 EQ PUSH2 0x717 JUMPI PUSH0 DUP1 REVERT JUMPDEST POP JUMP JUMPDEST PUSH0 DUP2 CALLDATALOAD SWAP1 POP PUSH2 0x728 DUP2 PUSH2 0x704 JUMP JUMPDEST SWAP3 SWAP2 POP POP JUMP JUMPDEST PUSH0 PUSH1 0x20 DUP3 DUP5 SUB SLT ISZERO PUSH2 0x743 JUMPI PUSH2 0x742 PUSH2 0x4DA JUMP JUMPDEST JUMPDEST PUSH0 PUSH2 0x750 DUP5 DUP3 DUP6 ADD PUSH2 0x71A JUMP JUMPDEST SWAP2 POP POP SWAP3 SWAP2 POP POP JUMP JUMPDEST PUSH0 PUSH1 0x20 DUP3 DUP5 SUB SLT ISZERO PUSH2 0x76E JUMPI PUSH2 0x76D PUSH2 0x4DA JUMP JUMPDEST JUMPDEST PUSH0 PUSH2 0x77B DUP5 DUP3 DUP6 ADD PUSH2 0x5BC JUMP JUMPDEST SWAP2 POP POP SWAP3 SWAP2 POP POP JUMP JUMPDEST PUSH0 DUP2 MLOAD SWAP1 POP SWAP2 SWAP1 POP JUMP JUMPDEST PUSH0 DUP3 DUP3 MSTORE PUSH1 0x20 DUP3 ADD SWAP1 POP SWAP3 SWAP2 POP POP JUMP JUMPDEST DUP3 DUP2 DUP4 MCOPY PUSH0 DUP4 DUP4 ADD MSTORE POP POP POP JUMP JUMPDEST PUSH0 PUSH2 0x7B6 DUP3 PUSH2 0x784 JUMP JUMPDEST PUSH2 0x7C0 DUP2 DUP6 PUSH2 0x78E JUMP JUMPDEST SWAP4 POP PUSH2 0x7D0 DUP2 DUP6 PUSH1 0x20 DUP7 ADD PUSH2 0x79E JUMP JUMPDEST PUSH2 0x7D9 DUP2 PUSH2 0x4E6 JUMP JUMPDEST DUP5 ADD SWAP2 POP POP SWAP3 SWAP2 POP POP JUMP JUMPDEST PUSH0 PUSH1 0x20 DUP3 ADD SWAP1 POP DUP2 DUP2 SUB PUSH0 DUP4 ADD MSTORE PUSH2 0x7FC DUP2 DUP5 PUSH2 0x7AC JUMP JUMPDEST SWAP1 POP SWAP3 SWAP2 POP POP JUMP JUMPDEST PUSH0 DUP2 MLOAD SWAP1 POP SWAP2 SWAP1 POP JUMP JUMPDEST PUSH0 DUP3 DUP3 MSTORE PUSH1 0x20 DUP3 ADD SWAP1 POP SWAP3 SWAP2 POP POP JUMP JUMPDEST PUSH0 DUP2 SWAP1 POP PUSH1 0x20 DUP3 ADD SWAP1 POP SWAP2 SWAP1 POP JUMP JUMPDEST PUSH2 0x836 DUP2 PUSH2 0x59D JUMP JUMPDEST DUP3 MSTORE POP POP JUMP JUMPDEST PUSH0 PUSH2 0x847 DUP4 DUP4 PUSH2 0x82D JUMP JUMPDEST PUSH1 0x20 DUP4 ADD SWAP1 POP SWAP3 SWAP2 POP POP JUMP JUMPDEST PUSH0 PUSH1 0x20 DUP3 ADD SWAP1 POP SWAP2 SWAP1 POP JUMP JUMPDEST PUSH0 PUSH2 0x869 DUP3 PUSH2 0x804 JUMP JUMPDEST PUSH2 0x873 DUP2 DUP6 PUSH2 0x80E JUMP JUMPDEST SWAP4 POP PUSH2 0x87E DUP4 PUSH2 0x81E JUMP JUMPDEST DUP1 PUSH0 JUMPDEST DUP4 DUP2 LT ISZERO PUSH2 0x8AE JUMPI DUP2 MLOAD PUSH2 0x895 DUP9 DUP3 PUSH2 0x83C JUMP JUMPDEST SWAP8 POP PUSH2 0x8A0 DUP4 PUSH2 0x853 JUMP JUMPDEST SWAP3 POP POP PUSH1 0x1 DUP2 ADD SWAP1 POP PUSH2 0x881 JUMP JUMPDEST POP DUP6 SWAP4 POP POP POP POP SWAP3 SWAP2 POP POP JUMP JUMPDEST PUSH0 PUSH1 0x20 DUP3 ADD SWAP1 POP DUP2 DUP2 SUB PUSH0 DUP4 ADD MSTORE PUSH2 0x8D3 DUP2 DUP5 PUSH2 0x85F JUMP JUMPDEST SWAP1 POP SWAP3 SWAP2 POP POP JUMP JUMPDEST PUSH0 PUSH1 0x4 SWAP1 POP SWAP2 SWAP1 POP JUMP JUMPDEST PUSH0 DUP2 SWAP1 POP SWAP3 SWAP2 POP POP JUMP JUMPDEST PUSH0 DUP2 SWAP1 POP SWAP2 SWAP1 POP JUMP JUMPDEST PUSH0 PUSH1 0x20 DUP3 ADD SWAP1 POP SWAP2 SWAP1 POP JUMP JUMPDEST PUSH2 0x90D DUP2 PUSH2 0x8DB JUMP JUMPDEST PUSH2 0x917 DUP2 DUP5 PUSH2 0x8E5 JUMP JUMPDEST SWAP3 POP PUSH2 0x922 DUP3 PUSH2 0x8EF JUMP JUMPDEST DUP1 PUSH0 JUMPDEST DUP4 DUP2 LT ISZERO PUSH2 0x952 JUMPI DUP2 MLOAD PUSH2 0x939 DUP8 DUP3 PUSH2 0x83C JUMP JUMPDEST SWAP7 POP PUSH2 0x944 DUP4 PUSH2 0x8F8 JUMP JUMPDEST SWAP3 POP POP PUSH1 0x1 DUP2 ADD SWAP1 POP PUSH2 0x925 JUMP JUMPDEST POP POP POP POP POP POP JUMP JUMPDEST PUSH0 PUSH1 0x80 DUP3 ADD SWAP1 POP PUSH2 0x96D PUSH0 DUP4 ADD DUP5 PUSH2 0x904 JUMP JUMPDEST SWAP3 SWAP2 POP POP JUMP JUMPDEST PUSH32 0x4E487B7100000000000000000000000000000000000000000000000000000000 PUSH0 MSTORE PUSH1 0x32 PUSH1 0x4 MSTORE PUSH1 0x24 PUSH0 REVERT JUMPDEST PUSH32 0x4E487B7100000000000000000000000000000000000000000000000000000000 PUSH0 MSTORE PUSH1 0x11 PUSH1 0x4 MSTORE PUSH1 0x24 PUSH0 REVERT JUMPDEST PUSH0 PUSH2 0x9D7 DUP3 PUSH2 0x59D JUMP JUMPDEST SWAP2 POP PUSH2 0x9E2 DUP4 PUSH2 0x59D JUMP JUMPDEST SWAP3 POP DUP3 DUP3 ADD SWAP1 POP DUP1 DUP3 GT ISZERO PUSH2 0x9FA JUMPI PUSH2 0x9F9 PUSH2 0x9A0 JUMP JUMPDEST JUMPDEST SWAP3 SWAP2 POP POP JUMP JUMPDEST PUSH0 PUSH2 0xA0A DUP3 PUSH2 0x59D JUMP JUMPDEST SWAP2 POP PUSH32 0xFFFFFFFFFFFFFFFFFFFFFFFFFFFFFFFFFFFFFFFFFFFFFFFFFFFFFFFFFFFFFFFF DUP3 SUB PUSH2 0xA3C JUMPI PUSH2 0xA3B PUSH2 0x9A0 JUMP JUMPDEST JUMPDEST PUSH1 0x1 DUP3 ADD SWAP1 POP SWAP2 SWAP1 POP JUMP INVALID LOG2 PUSH5 0x6970667358 0x22 SLT KECCAK256 PUSH3 0x6947AA 0xC7 0xB6 PC 0xBA SSTORE SWAP6 PUSH29 0xA14F6825931EF2D4076E6C79006A819F3245F24B4364736F6C63430008 BYTE STOP CALLER "
				},
				"gasEstimates": {
					"creation": {
						"codeDepositCost": "537000",
						"executionCost": "infinite",
						"totalCost": "infinite"
					},
					"external": {
						"balances(address)": "2825",
						"checkAge(uint256)": "infinite",
						"getBalance(address)": "2873",
						"returnNumbers()": "infinite",
						"setBalance(uint256)": "22668",
						"sumArray(uint256[])": "infinite",
						"viewarr()": "infinite",
						"whileNumbers()": "infinite"
					}
				},
				"methodIdentifiers": {
					"balances(address)": "27e235e3",
					"checkAge(uint256)": "51b1cfad",
					"getBalance(address)": "f8b2cb4f",
					"returnNumbers()": "99b8390a",
					"setBalance(uint256)": "fb1669ca",
					"sumArray(uint256[])": "1e2aea06",
					"viewarr()": "d5ae9409",
					"whileNumbers()": "d622e22b"
				}
			},
			"storageLayout": {
				"storage": [
					{
						"astId": 17,
						"contract": "contracts/arrayExample.sol:arrayExample",
						"label": "arr",
						"offset": 0,
						"slot": "0",
						"type": "t_array(t_uint256)4_storage"
					},
					{
						"astId": 162,
						"contract": "contracts/arrayExample.sol:arrayExample",
						"label": "balances",
						"offset": 0,
						"slot": "4",
						"type": "t_mapping(t_address,t_uint256)"
					}
				],
				"types": {
					"t_address": {
						"encoding": "inplace",
						"label": "address",
						"numberOfBytes": "20"
					},
					"t_array(t_uint256)4_storage": {
						"base": "t_uint256",
						"encoding": "inplace",
						"label": "uint256[4]",
						"numberOfBytes": "128"
					},
					"t_mapping(t_address,t_uint256)": {
						"encoding": "mapping",
						"key": "t_address",
						"label": "mapping(address => uint256)",
						"numberOfBytes": "32",
						"value": "t_uint256"
					},
					"t_uint256": {
						"encoding": "inplace",
						"label": "uint256",
						"numberOfBytes": "32"
					}
				}
			},
			"userdoc": {
				"kind": "user",
				"methods": {},
				"version": 1
			}
		}
	}
}